:020000040800F2
:10000000B00400209D010008FF1A00085B170008DB
:10001000FD1A000815090008111F00080000000063
:10002000000000000000000000000000231B00088A
:100030001709000800000000211B0008251B00080C
:10004000B7010008B7010008B7010008B7010008B0
:10005000B7010008B7010008B7010008B7010008A0
:10006000B7010008B7010008B7010008B701000890
:10007000B7010008B7010008B7010008B701000880
:10008000B7010008B7010008B7010008B701000870
:10009000B7010008B7010008B7010008B701000860
:1000A000B7010008B7010008B7010008B701000850
:1000B000B7010008B7010008B7010008B701000840
:1000C000B7010008B7010008B7010008B701000830
:1000D000B7010008B7010008B7010008B701000820
:1000E000B7010008B7010008B7010008B701000810
:1000F000B7010008B7010008B7010008B701000800
:10010000B7010008B7010008B7010008B7010008EF
:10011000B7010008B7010008B7010008B7010008DF
:10012000B7010008B7010008B7010008B7010008CF
:10013000B7010008B7010008B7010008B7010008BF
:10014000B7010008B7010008B7010008B7010008AF
:10015000B7010008B7010008B7010008B70100089F
:10016000B7010008B7010008B7010008B70100088F
:10017000B7010008B7010008B7010008000000003F
:10018000B7010008B7010008DFF80CD000F05CFAF6
:100190000048004701280008B004002006488047B6
:1001A00006480047FEE7FEE7FEE7FEE7FEE7FEE75C
:1001B000FEE7FEE7FEE7FEE7AD1B00088901000849
:1001C0002DE9F05F0546002092469B46884606468C
:1001D000814640241BE0284641464746224600F01F
:1001E0006AF853465A46C01A914110D31146184630
:1001F000224600F051F82D1A67EB01084F462246BF
:100200000120002100F048F817EB00094E41201EA4
:10021000A4F10104DFDC484631462A464346BDE8E6
:10022000F09FD2B201E000F8012B491EFBD27047CB
:100230000022F6E710B513460A4604461946FFF7B2
:10024000F0FF204610BD00F0004230F000400AD020
:10025000C10D01F56071C0F3160042EA0151C208F8
:1002600040071143704700200146704730B50B46E8
:10027000014600202022012409E021FA02F59D42D6
:1002800005D303FA02F5491B04FA02F52844151EAA
:10029000A2F10102F1DC30BD202A04DB203A00FA91
:1002A00002F1002070479140C2F1200320FA03F3CD
:1002B000194390407047202A04DB203A21FA02F0CB
:1002C0000021704721FA02F3D040C2F12002914090
:1002D0000843194670472DE9FE4F804681EA030026
:1002E000C00F0C46009021F0004123F00045B8EB10
:1002F0000200A94105D24046214690461C460B46C5
:10030000024623F00040104347D0270DC7F30A00F0
:10031000C3F30A510290401A019040286BDAC3F3EC
:10032000130040F4801B0098924620B10023D2EBCA
:10033000030A63EB0B0B01985946C0F1400250468B
:10034000FFF7AAFF06460D4650465946019A00F0AF
:100350008DF910EB08006141002487EA115284EA0C
:10036000E7731A4340D0009A62B3019A012A4FEA18
:10037000075215DC001B61EB02014FF0004202EA5C
:100380000752CDE90042001C41F5801132462B4650
:1003900000F08DF903B0BDE8F08F40462146F9E743
:1003A000001B61EB0201001C41F5801300185B414A
:1003B0002018A2F5001747EB030140EAD570B619E3
:1003C0006D4111E06D084FEA360645EAC0754FEA07
:1003D0000752001B61EB0201001C41F58011490826
:1003E0004FEA30000019514132462B4603B0BDE8B8
:1003F000F04F00F04DB90098012240000023D0EBEF
:10040000020263EBE073009821464FEAE074B8EB18
:10041000000061EB0401E9E783F000435BE781F052
:10042000004158E72DE9FE4F81EA030404F000443F
:1004300021F0004100944FF0000B23F0004350EAFC
:1004400001045ED052EA03045BD0C3F30A54C1F343
:100450000A552C44A4F2F3340194A0FB0254C1F3D6
:10046000130141F48011C3F3130343F4801301FB20
:10047000024400FB034E840A970A44EA815447EA87
:100480008357A4FB076802958D0A05FB07854FEA91
:10049000932C04FB0C542705029D4FEA065847EAAB
:1004A0001637B5EB08056EEB070C870E920E47EA80
:1004B000811742EA8312A7FB0201B6EB0B0164EB42
:1004C00000042B0D43EA0C335E1844EB1C50DA4653
:1004D0005146E7FB0201C5F313044FEA0B3343EA2D
:1004E00014534FEA0432019C43EA0603A4F10C04BE
:1004F0000294009CCDE900B400F0D9F803B0BDE847
:10050000F08F00200146F9E72DE9F04D81EA030460
:1005100004F0004B21F0004514464FF0000A23F090
:10052000004150EA050220D054EA01021DD0C5F373
:100530000A570246C5F31303C1F31300C1F30A5669
:1005400040F4801543F48013A7EB0608101BD64631
:1005500008F2FD3873EB050002D308F1010801E051
:1005600092185B41B8F1000F03DA00200146BDE8A4
:10057000F08D00204FF48011064684460EE0171BD4
:1005800073EB050705D3121B63EB050306434CEA27
:10059000010C49084FEA300092185B4150EA01070C
:1005A000EDD152EA030012D082EA040083EA050189
:1005B000084305D0101BAB4106D20122002306E000
:1005C00000224FF0004302E06FF0010253101AEBDB
:1005D00006004CEB085110EB0A0041EB0B01BDE8A3
:1005E000F04D00F055B8C1F30A52C1F3130140F2C7
:1005F000FF3341F480119A4202DA0020014670472D
:1006000040F233439A42A2F2334202DC5242FFF7F5
:1006100052BEFFF741BE000030B5041E71F1000468
:1006200004DB4FF00044404264EB0101141E73F1FF
:10063000000405DB1C464FF00043524263EB040309
:10064000994208BF904230BD064C074D06E0E06875
:1006500040F0010394E8070098471034AC42F6D309
:10066000FFF796FDA8290008C8290008202A06DB04
:10067000CB17203A41FA02F043EAE07306E041FA70
:1006800002F3D040C2F1200291400843194670475E
:1006900010B5141E73F1000408DA401C41F100018A
:1006A00092185B411A4301D120F0010010BD2DE9E1
:1006B000F04D92469B4611B1B1FA81F202E0B0FAD8
:1006C00080F220329046FFF7E7FD04460F4640EAED
:1006D0000A0041EA0B0153465A46084313D011461B
:1006E00053EA010019D0C8F140025046FFF7E3FD7C
:1006F00005460E46504659464246FFF7CDFD084393
:1007000005D0012004E020463946BDE8F08D0020E8
:10071000054346EAE0762C4337430A986305E40A2A
:10072000A0EB08000022FD0A44EA47540A3002D533
:1007300000200146E9E7010510196941DDE9084596
:1007400000196941BDE8F04DA2E7000042000248EF
:100750000270416070470000000000201FB50A23AE
:10076000022203A98DE80E00024605480123017804
:10077000406800F045FABDF80C0004B040BA10BD66
:100780000000002010B500202DED028B9FED0C8A9B
:10079000FFF7E4FF020BC0F30B010020B0EE000AEC
:1007A00003E000BF28EE008A401C9042FADB00EE16
:1007B000101AB8EE400A28EE000ABDEC028B10BDFC
:1007C0000AD7233C70B505460120FFF7C7FF044652
:1007D00020F00301012000F087F8002D12D0012D38
:1007E0000AD0022D0BD0032D0CD144F00301BDE83B
:1007F0007040012000F078B844F00101F7E744F0C0
:100800000201F4E770BD10B504460120FFF7A6FF12
:1008100014B140F0100101E020F01001BDE81040DB
:10082000012000F061B810B504460120FFF796FFE3
:1008300014B140F0040101E020F00401BDE81040D3
:10084000012000F051B870B505460120FFF786FF82
:10085000044620F4C061012000F046F8002D0BD0C2
:10086000012D02D044F4806101E044F40071BDE840
:100870007040012000F038B870BD10B5044601206A
:10088000FFF76CFF14B140F0080101E020F008010F
:10089000BDE81040012000F027B870B505460120E2
:1008A000FFF75CFF04464FF6FF7000EA0535C4F31E
:1008B0000B01012000F018F844EA0501BDE8704082
:1008C000012000F011B810B504460120FFF746FFE3
:1008D00014B140F4006101E020F40061BDE8104073
:1008E000012000F001B800001FB50A0A8DF80C20A5
:1008F0008DF80D100A23022203A98DE80E0002468E
:10090000034801230178406800F078FA1FBD000019
:1009100000000020FEE7704770B5044600F0E6F8DE
:100920000546601C02D004480078044400F0DEF85C
:10093000401BA042FAD370BD080000202DE9F84FFB
:10094000DFF87CB100224FF001084FF0030A4FF0AE
:100950000F090BF1040E00BF0B6808FA02F42340E4
:10096000A3426ED14D68022D01D0122D0ED1D508B3
:1009700000EB850CDCF820505607F70E09FA07F655
:10098000B5430E69BE402E43CCF820600668550082
:100990000F790AFA05FC07F0030726EA0C06AF40B8
:1009A000374307604E68012E05D0022E03D0112E6A
:1009B00001D0122E0ED18668CF6826EA0C06AF4011
:1009C000374387604668A6430C79C4F3001494400B
:1009D00034434460C6688C6826EA0C06AC40344355
:1009E000C4604C68E40065D5364C256845F4804504
:1009F0002560246822F0030504F480440094324CFE
:100A00002E19D6F8084895072F0F09FA07F5AC43B9
:100A10002E4DA84201D1002524E02D4DA84201D140
:100A200001251FE02B4DA84201D102251AE02A4DD5
:100A3000A84201D1032515E0284DA84202D1042582
:100A400010E037E0264DA84201D105250AE0254DEA
:100A5000A84201D1062505E0234DA84201D1072572
:100A600000E00825BD402543C6F80858DBF80040E3
:100A70005D464E689C43F60300D51C432C60DEF8AF
:100A8000004075464E689C43B60300D51C432C605D
:100A90000B4D08352C684E689C43F60200D51C436C
:100AA0002C60074D0C352C684E689C43B60200D56F
:100AB0001C432C60521C102AFFF44EAFBDE8F88F87
:100AC000003C014044380240003001400000024038
:100AD0000004024000080240000C024000100240E6
:100AE0000014024000180240001C024001488068C7
:100AF000704700000800002070B5040004D094F88E
:100B00003D00002510B106E0012070BD84F83C5086
:100B1000204600F011FA242084F83D002068016886
:100B200021F00101016000F061FB33492268B0FB54
:100B3000F1F15160314A6368934206D94FF49673DC
:100B400059434FF47A73B1FBF3F12368491C1962DE
:100B5000616891420BD84900B0FBF1F2C2F30B027D
:100B6000042A01D2042019E0B0FBF1F016E0A368DA
:100B70009BB301EBC10202EB0112B0FBF2F242F4B3
:100B80008042120530D04BB301EBC10202EB0111E0
:100B9000B0FBF1F040F4804040F400402168C861AF
:100BA000D4E90701084321680860D4E90310084329
:100BB00021688860D4E9050108432168C86020687D
:100BC000016841F0010101602564202084F83D00A6
:100BD000256384F83E50002070BD00E006E001EB84
:100BE0004102B0FBF2F2CCE70120D7E701EB410173
:100BF000B0FBF1F0D0E7000040420F00A0860100FA
:100C00002DE9FF4F83B09A46DDE9118793460446EC
:100C1000DDF84090FFF76AFF054694F83D00202874
:100C200074D11923012272492046009500F099FEE3
:100C30000028F5D194F83C00012867D0012084F801
:100C40003C0020680168C90703D1016841F0010137
:100C500001602068016821F400610160222084F8AD
:100C60003D00402084F83E0000262664C4F824900D
:100C7000A4F82A805F48E062608D2085CDE9007588
:100C800053465A462046049900F07CFD28B1206C5A
:100C900084F83C60042843D076E0208DC8B1012858
:100CA00020D00228206823D0416980690090208DDF
:100CB00003286BD801282AD04F4902283B464FF021
:100CC000000200955BD08846204600F04AFEE8BB53
:100CD00040E02068416981690091016841F4007138
:100CE000016076E02068016821F480610160F0E72E
:100CF000016821F4806101602068016841F40061AD
:100D00000160206841698069009062E06EE02A46D7
:100D10003946204600F09AFE30B1206C202833D0AE
:100D2000012007B0BDE8F08F206847E02068016827
:100D300041F40071016020680169606A421C6262CE
:100D40000170208D401E2085608D00E01CE0401E5B
:100D50006085E9E72068016821F48061016020680E
:100D60000169606A421C62620170208D401E20850C
:100D7000608D401E60853B4600224146009520461E
:100D800000F0EFFD0028D1D00320CAE72A463946FB
:100D9000204600F05BFE0028BFD120680169606A30
:100DA000421C62620170208D401E2085608D401EB5
:100DB000608520684169C94349070AD40169606AAE
:100DC000421C62620170208D401E2085608D401E95
:100DD0006085208D00287FF46AAF202084F83D00D4
:100DE00084F83E6084F83C6000209AE7022098E78F
:100DF000020010000000FFFF040001002DE9FF4F7A
:100E000083B09A46DDE9118793460446DDF84090A9
:100E1000FFF76CFE064694F83D0020287DD119238B
:100E2000012243492046009600F09BFD00287CD11A
:100E300094F83C00012878D0012084F83C00206818
:100E40000168C90703D1016841F001010160206810
:100E5000016821F400610160212084F83D004020F8
:100E600084F83E0000252564C4F82490A4F82A8064
:100E70003048E062608D2085CDE9007653465A46C1
:100E80002046049900F0F6FC80B3206C84F83C50B6
:100E9000042848D008E032463946204600F007FED4
:100EA00030B1206C042839D0032007B0BDE8F08FA2
:100EB000606A411C6162216800780861208D401ED3
:100EC00080B22085618D491E618521684A69D243BF
:100ED00052070BD468B1606A421C626200780861F4
:100EE000208D401E2085608D401E6085208D00284D
:100EF000D1D132463946204600F00CFD0028D0D131
:100F000054F83D0B016841F400710160202004F8A1
:100F10001E09E57765770020C7E706E020680168CD
:100F200041F4007101600120BFE70220BDE700002D
:100F3000020010000000FFFF10B586B00446142127
:100F40006846FFF775F914492068884221D1134893
:100F5000016841F0020101600068694600F002008A
:100F600005904FF440600090122001900120029003
:100F700003200390042004900948FFF7DFFC074892
:100F80001030016841F480010160006800F48000C5
:100F9000059006B010BD00000058004030380240F7
:100FA0000004024002488168027811448160704761
:100FB000080000200B4810B5016841F40071016081
:100FC000016841F480610160016841F48071016051
:100FD000032000F061F8002000F006F800F024F88B
:100FE000002010BD003C024070B50D4D04464FF48A
:100FF0007A712878B1FBF0F00A490968B1FBF0F08A
:1010000000F0D2FA48B9102C07D200222146501E17
:1010100000F022F800206C6070BD012070BD00005F
:1010200008000020140000200A4808B5016841F4B7
:1010300080410160006800F4804000900548001F76
:10104000016841F080510160006800F0805000901C
:1010500008BD000044380240F0B40E4B1B680C463B
:10106000C3F30223C3F10705042D00D90425191D7C
:10107000072901D2002300E0DB1E012606FA05F154
:10108000491E214099409E40761E16403143F0BCD7
:1010900000F036BD0CED00E0064900F007020868DC
:1010A0004FF6FF03184040EA0220034A104308604D
:1010B000704700000CED00E00000FA052DE9F04754
:1010C0000E46050065D0DFF81481D8F80000F7B2AD
:1010D00000F00F00B04207D288F80070D8F8000086
:1010E00000F00F00B04254D128683D4C810712D562
:1010F000400703D5206840F4E050206028780007BE
:1011000003D5206840F4604020602068A96820F082
:10111000F000084320602878C0072DD03049686867
:101120000839012812D0022813D0032811D00968E9
:10113000890700292DDA216821F00301014321608C
:10114000FFF7D4FC814641F2883A0EE00968890332
:10115000EFE709688901ECE7FFF7C8FCA0EB09019C
:10116000514502D90320BDE8F0872068696800F086
:101170000C00B0EB810FEFD1D8F80010404601F021
:101180000F01B14207D90770006800F00F00B042AC
:1011900001D00120E7E72878400705D52068E968F5
:1011A00020F4E050084320602878000706D5206826
:1011B000296920F4604040EAC100206000F036F860
:1011C0002168084AC1F30311515CC8400649086010
:1011D0000020FFF709FF0020C5E70000003C0240A7
:1011E00008380240902900081400002004480549EE
:1011F00000680968044AC1F38221515CC840704705
:101200001400002008380240A029000804480549BD
:1012100000680968044AC1F34231515CC840704714
:101220001400002008380240A0290008154810B515
:10123000006810F00C02144813D04110042A0FD09B
:10124000082A0ED10F4C241F2268236802F03F02A7
:101250005B0207D52068C0F38810A0FB010106E0FF
:10126000084610BD2168C1F38811A1FB00010023CD
:10127000FEF7A6FF2168C1F30141491C4900B0FBFC
:10128000F1F010BD083802400024F4002DE9F84FB9
:10129000050076D02878DFF8F8B2BE4CC00749D0F8
:1012A000DBF800105846C1F38101012908D000681D
:1012B000C0F3810002280AD1201D0068400206D533
:1012C0002068800336D568680028E2D032E068687C
:1012D000B0F5803F10D0B0F5A02F206810D020F4DA
:1012E00080302060206820F4802020606868A0B1F1
:1012F000FFF7FCFB06460CE0206840F48030F4E782
:1013000040F480202060F7E7FFF7F0FB801B6428A3
:1013100073D820688003F7D50CE0FFF7E7FB06469B
:1013200005E000BFFFF7E2FB801B6428F0D82068CF
:101330008003F7D42878DFF8608280074FF0000937
:101340003ED5DBF80010584611F00C0F09D00068AC
:10135000C0F3810002280BD18D48001F00684002B5
:1013600006D42068800715D5E868012809D111E066
:10137000E868B8B10120C8F80000FFF7B7FB0646DF
:1013800005E002E1FFF7B2FB801B0228C0D820680D
:101390008007F7D52068296920F0F80040EAC100ED
:1013A00020600DE0C8F80090FFF7A0FB064604E0BF
:1013B000FFF79CFB801B02281FD820688007F7D40A
:1013C0002878000722D5724E744869696C3671B16D
:1013D00001210160FFF78AFB074604E0FFF786FB67
:1013E000C01B022809D830688007F7D50EE0C0F886
:1013F0000090FFF77BFB074605E083E0FFF776FBF5
:10140000C01B02287ED830688007F7D428784007B0
:1014100068D5DFF87CA100270AF1380ADAF8000065
:10142000C0000BD4DAF8001041F08051CAF8001067
:10143000DAF80000012700F080500090584E306824
:10144000C00510D4306840F480703060FFF74EFB68
:10145000009005E0FFF74AFB0099401A022851D896
:101460003068C005F6D54A4EA868683601280FD006
:101470000528306810D020F001003060306820F07E
:1014800004003060A868B8B1FFF730FB00900FE0AF
:10149000306840F00100F4E740F004003060F7E706
:1014A000FFF724FB0099411A41F28830814264D849
:1014B00030688007F4D50EE0FFF718FB009007E0D6
:1014C000FFF714FB0099411A41F28830814254D849
:1014D00030688007F4D42FB1DAF8001021F0805181
:1014E000CAF80010A869C0B3DBF80010C1F381018D
:1014F00002294AD00228484607D0C8F86000FFF702
:10150000F5FA00E039E005463AE04746C8F86000E1
:10151000FFF7ECFA064604E0FFF7E8FA801B022822
:101520002BD820688001F7D4D5E907010843A96AC0
:101530001C4A490802EB01416A6A41EA82110843E8
:1015400095F82C1040EA01611148001F016001204C
:101550003866FFF7CBFA054605E014E0FFF7C6FA58
:10156000401B022809D820688001F7D50BE000BF96
:10157000FFF7BCFA401B022802D90320BDE8F88F10
:1015800020688001F4D40020F8E70120F6E700008D
:10159000083802400038024000004742800E4742AF
:1015A000007000400000FFFF10B5401EB0F1807FCA
:1015B00001D3012010BD4FF0E02460610F216017BE
:1015C00000F09EFA0020A06107202061002010BDDD
:1015D00070B5040004D094F83900002510B106E07D
:1015E000012070BD84F83850204600F023F82420F4
:1015F00084F839002068C16821F40051C160204698
:1016000000F0FEFA2068016921F490410161206830
:10161000416921F02A0141612068C16841F400510B
:10162000C160E563202084F8390084F83A00002086
:1016300070BD000010B586B0044614216846FEF760
:10164000F7FD14492068884221D11348016841F40C
:1016500080210160006800F4802005900E48103859
:10166000016841F0040101600068694600F004006F
:1016700005904FF4406000900220019001200290FC
:1016800003200390072004900448FFF757F906B0A1
:1016900010BD0000004800404038024000080240F1
:1016A0002DE9F843044690F839001F4616460D46CA
:1016B000202850D1A5B19EB194F8380001284AD015
:1016C000012084F838004FF00008C4F83C80212045
:1016D00084F83900FFF70AFAA6848146E68426E0FA
:1016E0000120BDE8F883E08C401EE084A0684B46F2
:1016F000B0F5805F4FF000024FF080012046009768
:1017000003D000F0D3FBE8B90DE000F0CFFBC8B97F
:1017100028882168C0F308004860206908B16D1C62
:1017200005E0AD1C03E0216815F8010B4860E08C72
:101730000028D8D14B46002240212046009700F0D7
:10174000B5FB08B10320CCE7202084F8390084F8E9
:1017500038800020C5E70220C3E7FEE701684A6938
:10176000D24352050CD46FF480624A6104210164B3
:10177000002140F8301F202242730173012070477E
:10178000002070472DE9F84F0446006889460B9DFC
:1017900001689846174641F480610160206801683D
:1017A00041F48071016000954FF0011A002251460A
:1017B00020460A9B00F0D5F8F0BB216809F0FE0036
:1017C00008610AF1010B2B46594620460A9A00F09F
:1017D000F9F818B1206C042812D03AE02068416969
:1017E000806900902A4620460A9900F060F950B1BD
:1017F000206C04282DD12068016841F4007101603B
:101800000120BDE8F88FFEB2B8F1010F09D02168C0
:10181000380A08612A4620460A9900F048F900284B
:10182000E6D1206806612A4620460A9900F03FF971
:101830000028DDD1206800E00BE0016841F48071F0
:10184000016000950022514620460A9B00F089F86D
:1018500008B10320D5E7216809F0FF0040F001003E
:1018600008612B46594620460A9A00F0ABF800283A
:10187000B0D1C6E72DE9F843044600680D46DDE91E
:10188000089701689846164641F4807101604B46FE
:1018900000224FF001112046009700F062F8E8B9ED
:1018A000216805F0FE0008613B464A46184920467B
:1018B00000F088F828B1206C04280FD10120BDE881
:1018C000F88320684169806900903A46494620467D
:1018D00000F0EDF820B1206C042813D00320EEE7CF
:1018E000F5B2B8F1010F09D02168300A08613A4613
:1018F0004946204600F0DBF80028ECD1206805615D
:101900000020DCE72068016841F400710160D5E740
:101910000200010070B516460D4604461AE0204646
:10192000FFF71CFF08B1012070BD681C12D025B163
:10193000FFF7DCF8801BA8420CD954F8400F40F0A8
:10194000200044F8100900202060202161732073DA
:10195000032070BD20684069C0434007DFD40020E9
:1019600070BD2DE9F0471E4690460D460446C1F372
:101970000747DDF8209012E0701C10D02EB1FFF761
:10198000B5F8A0EB0900B04209D9002044F8300FA7
:1019900020216173A07320730320BDE8F0872068C5
:1019A000012F0AD0806925EA00000004000C06D04F
:1019B00000214145E0D00020EFE74069F3E7012135
:1019C000F7E700002DE9F0479A4691460D46044698
:1019D00000264FF02008C1F307472AE0206840693D
:1019E000C043400512D42068016841F400710160D1
:1019F00021686FF48060486104202064266384F8C5
:101A00003D8084F83C600120BDE8F087B9F1FF3FDC
:101A10000FD0B9F1000F05D0FFF768F8A0EB0A016D
:101A2000494506D944F8306F84F80D8026730320A9
:101A3000EAE72068012F07D0D0F8180025EA000057
:101A40000004000CE0D0C9E74069F7E72DE9F04158
:101A5000002590460E460446202721E04069C043F9
:101A6000C0060CD421686FF010004861256425631E
:101A700084F83D7084F83C500120BDE8F0812EB11F
:101A8000FFF734F8A0EB0800B04209D954F8400F32
:101A900040F0200044F80409677025700320ECE74B
:101AA00020684169C9434906D8D40020E5E770B5EC
:101AB00016460D4604461AE02046FFF74FFE08B1D1
:101AC000012070BD681C12D025B1FFF70FF8801BF4
:101AD000A8420CD954F8400F40F0200044F81009F7
:101AE00000202060202161732073032070BD2068D6
:101AF0004069C0430006DFD4002070BDFEE7704798
:101B00000907090E002806DA00F00F0000F1E020B6
:101B100080F8141D704700F1E02080F80014704731
:101B200070477047FFF73EBA30B593B03021684632
:101B3000FEF77EFB14210CA8FEF77AFB194800255E
:101B4000016841F080510160006800F08050119000
:101B50001548016841F4804101600068022400F4E6
:101B60008040119001200090000401908001CDE997
:101B7000064008AA0420A82182E813000B906846BA
:101B8000FFF784FB0CA90F2081E831004FF4A0502F
:101B90000F90E002109005210CA8FFF78FFA13B008
:101BA00030BD00004038024000700040104801681D
:101BB00041F4700101600F48016841F001010160CA
:101BC0000C4A00210832116002680B4B1A40026077
:101BD000031D0A4A1A60026822F480220260054846
:101BE0000C300160024958068039086070470000D7
:101BF00088ED00E000380240FFFFF6FE10300024C0
:101C00002DE9F04104460068016921F44052E16881
:101C1000114301612168C86849F20C62904323694D
:101C2000A268E5691A4363692B431A430243CA60F9
:101C30002168486920F44072A06910434861E16955
:101C40006425B1F5004F9748974A21684FF0320854
:101C50003FD0914201D081427CD1FFF7D7FA00EB0F
:101C6000C00101EB001061688900B0FBF1F6FFF7DD
:101C7000CDFA00EBC00101EB001061688900B0FBF8
:101C8000F1F0B0FBF5F06FF01801484306EB80016E
:101C900008EB0110B0FBF5F000F0F006FFF7B6FA24
:101CA00000EBC00101EB001061688900B0FBF1F0AE
:101CB000B0FBF5F006EB0016FFF7A8FA00EBC00149
:101CC00001EB001061688900B0FBF1F7FFF79EFAA5
:101CD000D2E0914201D081423DD1FFF797FA00EB6B
:101CE000C00101EB001061684900B0FBF1F0B0FBEE
:101CF000F5F00601FFF78AFA00EBC00101EB0010D6
:101D000061684900B0FBF1F7FFF780FA00EBC00112
:101D100001EB001061684900B0FBF1F0B0FBF5F099
:101D20006FF01801484307EB800108EBC100B0FBDE
:101D3000F5F000F0F80006EB4006FFF767FA00EB5D
:101D4000C00101EB001061684900B0FBF1F7FFF73B
:101D50005DFA3CE055E0FFF749FA00EBC00101EB0A
:101D6000001061684900B0FBF1F0B0FBF5F006012E
:101D7000FFF73CFA00EBC00101EB0010616849007D
:101D8000B0FBF1F7FFF732FA00EBC00101EB0010F6
:101D900061684900B0FBF1F0B0FBF5F06FF018019D
:101DA000484307EB800108EBC100B0FBF5F000F001
:101DB000F80006EB4006FFF719FA00EBC00101EB53
:101DC000001061684900B0FBF1F7FFF70FFA00EB74
:101DD000C00101EB001061684900B0FBF1F0B0FBFD
:101DE000F5F06FF01801484307EB800108EBC100E4
:101DF000B0FBF5F000F00700216830448860BDE8D2
:101E0000F081FFF7F3F900EBC00101EB001061680E
:101E10008900B0FBF1F6FFF7E9F900EBC00101EB37
:101E2000001061688900B0FBF1F0B0FBF5F06FF0D5
:101E30001801484306EB800108EB0110B0FBF5F0F8
:101E400000F0F006FFF7D2F900EBC00101EB001043
:101E500061688900B0FBF1F0B0FBF5F006EB00160D
:101E6000FFF7C4F900EBC00101EB001061688900C5
:101E7000B0FBF1F7FFF7BAF900EBC00101EB00107E
:101E800061688900B0FBF1F0B0FBF5F06FF018016C
:101E9000484307EB800108EB0110B0FBF5F000F0C0
:101EA0000F00A9E700140140001001402DE9F041A6
:101EB000984617460E460446069D1DE0681C1BD03A
:101EC0002DB1FEF713FEA0EB0800A84214D920683C
:101ED000C16821F4D071C1602068416921F001011D
:101EE0004161202084F8390084F83A00002084F809
:101EF00038000320BDE8F0812068006836EA000061
:101F000004D00020B842D9D00020F3E70120F9E73F
:101F1000FEE700000FB4054B10B503A9044A029870
:101F200000F0CAF810BC5DF814FB0000E9270008B7
:101F30001800002002E008C8121F08C1002AFAD1C8
:101F400070477047002001E001C1121F002AFBD139
:101F5000704700002DE9FF5FDDE90220010DDDF88B
:101F600038B0024318D044F61050A1F2FF3141437B
:101F70000D140F98012820D0A5EB0B00401C5FEA40
:101F8000000A4FF00004474EDFF81C91A04650466F
:101F900016D5CAF1000728E00F98012443A20128B2
:101FA00008D0002100980F9BC0E90021C0E902433E
:101FB000BDE8FF9F6FEA0B01F4E7CBF10000DEE71D
:101FC000074612E0F80707D0224633464046494606
:101FD000FEF728FA804689462246334610461946BF
:101FE000FEF720FA04460E467F10002FEAD1DDE905
:101FF0000201BAF1000F42464B4602DAFEF712FA2E
:1020000001E0FEF781FA04460E460022284BFEF757
:1020100003FB03D84FF0FF30014607E00022254BB9
:1020200020463146FEF757F9FEF7DDFA102409E0A5
:10203000002C0ADB0A220023FEF7C2F8019B303293
:102040001A55641E50EA0102F2D1641C019AC4F1CF
:10205000110314440F9A012A03D0012208430DD121
:102060000AE0084304D000204FF0110B0F9080E7E6
:10207000A3EB0B056D1E0DE05B4504DD4FF0000288
:1020800005F1010504E003DA4FF00002A5F10105B6
:10209000002AECD000980F99C0E90231C0E9004550
:1020A00086E70000000024400000F03F3000000000
:1020B0000000F0430000E03F2DE9FF4F95B09B4644
:1020C0008946064600250FE2252877D100242746B9
:1020D000F84A0121059400E0044316F8013F203B33
:1020E00001FA03F01042F7D130782A2811D06FF0AE
:1020F0002F033078A0F13002092A16D8059A44F04F
:10210000020402EB820203EB42021044761C0590AB
:10211000EFE759F8042B0592002A03DA504244F401
:102120000054059044F00204761C30782E2816D115
:1021300016F8010F44F004042A280DD06FF02F0286
:102140003078A0F13003092B09D807EB870302EBA5
:102150004303C718761CF3E759F8047B761C3078E4
:102160006C280FD006DC4C2817D068280DD06A28C0
:1021700014D104E0742810D07A280FD10DE044F473
:1021800000140AE044F4801401E044F4401472782E
:10219000824202D104F58014761C761C30786628C1
:1021A0000BD013DC582877D009DC002875D04528DF
:1021B000F6D04628F4D047281AD19DE118E06328CC
:1021C00035D0642879D0652812D195E1702873D074
:1021D00008DC6728F1D069286FD06E280DD06F28F1
:1021E00006D1B5E073282CD0752875D0782874D026
:1021F0005A46179990476D1C75E1C4F302500228A6
:1022000009D003280DD0D9F8001004280DD00D6096
:1022100009F1040967E1D9F80010EA17C1E9005291
:10222000F6E7D9F800100D80F2E70D70F0E719F825
:10223000041B8DF8001000208DF80100EA460120F3
:1022400003E059F804AB4FF0FF3061074FF0000195
:1022500002D40DE008F101018846B9420FDA804549
:10226000F8DB1AF808100029F4D108E008F10101A0
:1022700088468142FADB1AF808100029F6D1059841
:102280005B46A0EB080721463846179A00F094FAFF
:10229000284400EB080507E04DE029E10DE01AF8BD
:1022A000010B5A4617999047B8F10108F7D25B46DF
:1022B00021463846179A13E142E00A220092C4F3FD
:1022C00002524FF0000A022A08D059F804CB032A20
:1022D0004FEAEC710AD00DE029E02AE009F107018C
:1022E00021F00702F2E802C1914609E00FFA8CFCE6
:1022F0004FEAEC71042A03D14FFA8CFC4FEAEC71DF
:10230000002907DA0A460021DCF1000C61EB02012A
:102310002D2202E0220504D52B228DF80420012273
:1023200003E0E20701D02022F7E7904659E00A21B6
:1023300002E010220DE010214FF0000A00910BE0A6
:1023400010224FF0000A44F004040827009203E032
:1023500008224FF0000A0092C4F30252022A05D06C
:1023600059F804CB0021032A08D009E009F107013C
:1023700021F00702F2E802C1914605E01FFA8CFC49
:10238000042A01D10CF0FF0C4FF00008220728D5D9
:10239000702806D0009B83F0100353EA0A0305D08F
:1023A0000EE040228DF80420012208E05CEA0102E0
:1023B00006D030228DF804208DF8050002229046C8
:1023C000009B83F0080353EA0A030AD15CEA010286
:1023D00001D1620705D530228DF804204FF00108A5
:1023E0007F1E582804D034A003900EA802900DE060
:1023F00036A0F9E753466046009AFDF7E1FE8446B1
:102400000398825C0298401E029002705CEA010010
:10241000F0D1029806A9081A00F1200A600702D537
:1024200024F4803400E00127574502DDA7EB0A00C1
:1024300000E0002000EB0A01009005984144401A9A
:102440000590E00306D45B462146179A059800F0F4
:10245000B3F90544002706E001A85A46C05D179964
:1024600090476D1C7F1C4745F6DBE0030CD55B46AF
:102470002146179A059800F09FF9054404E03020A2
:102480005A46179990476D1C0099481E00900029E4
:10249000F5DC08E0029802995A460078491C02913E
:1024A000179990476D1CBAF10001AAF1010AF1DCFD
:1024B00065E1000009280100303132333435363708
:1024C0003839616263646566000000003031323380
:1024D0003435363738394142434445460000000020
:1024E00000F058F90544761C307800287FF4ECADF4
:1024F00019B02846BDE8F08F620700D4062709F11D
:10250000070222F0070CFCE80223E14603F0004832
:102510005FEA080C02D00FF2702C0DE05FEA045C59
:1025200002D50FF2682C07E05FEAC47C02D00FF2FC
:10253000602C01E0AFF2700C4FF0FF3823F0004345
:10254000CDF850C065280CD006DC452809D04628B7
:102550001DD047283DD13DE0662818D067287ED1A0
:1025600038E00021112F01DB112000E0781CCDE9BB
:10257000000106A90EA8FFF7EDFCDDE90F010E9A98
:1025800003910021009207F1010A04914DE04FF000
:1025900000400097CDE9011006A90EA8FFF7DAFC6C
:1025A000DDE90F0203920E9B11990022DDF80CA0C9
:1025B0000093049211B9791C00EB010AB7EB0A00F1
:1025C00004D4C0F1FF3007F1010A0490AAEB070020
:1025D000019044E0012F00DA01270021112F01DDD5
:1025E000112000E03846CDE9000106A90EA8FFF74A
:1025F000B1FCDDE90F010E9A0391002104910092D4
:10260000BA4621070CD40399514500DA8A46BAF13B
:10261000010F05DD009AAAF10101515C302908D0B3
:10262000B84202DA10F1040F06DA0121CDE90110F7
:1026300015E0AAF10101E9E7002805DC049901444D
:102640000491AAEB000102E0411C514500DD8A46DD
:102650000499401A401C01904FF00040029020075E
:1026600004D40198504501DBCDF8048000208DF89A
:102670004F0002980DF14F07B0F1004F25D02B20ED
:102680000E9002984FF0020800280CDA40420290A7
:102690002D200E9007E00A210298FDF7E7FD30316A
:1026A000029007F8011DB8F10001A8F10108F2DC61
:1026B00002980028EFD1791E0E980870307800F04B
:1026C000200040F0450007F8020D12A8C01B00F1E1
:1026D00007081498007800B1012000EB0A01019866
:1026E00001EBE07105984144401A401E0590E0035B
:1026F00006D45B462146179A059800F05DF805441C
:102700001498007818B15A46179990476D1CE00349
:1027100024D55B462146179A059800F04DF80544EC
:102720001CE00498002807DBDDE90301884203DD93
:102730000098405C179901E0179930205A4690475D
:10274000049805F10105401C04900198401E019079
:1027500004D12E205A46179990476D1CBAF10001FA
:10276000AAF1010ADDDC05E017F8010B5A461799BA
:1027700090476D1CB8F10001A8F10108F4DC5B463C
:102780002146179A0598ABE62D0000002B000000AB
:10279000200000002DE9F041044600251E461746A2
:1027A000880404D405E039462020B0476D1C641E1F
:1027B000F9D52846BDE8F0812DE9F0410446002511
:1027C0001E469046C80301D5302700E02027880424
:1027D00004D505E041463846B0476D1C641EF9D566
:1027E0002846BDE8F081000013B54FF6FF730122C3
:1027F00069460248FEF754FF00981CBD7000002097
:1028000008B5FEF7D7FBFFF78FF9224800240168CF
:1028100041F080010160016801F0800100910168D0
:1028200041F002010160016801F0020100910168BC
:1028300041F0040101600068174900F004000090B5
:10284000164801601649C0E901144FF48041C0E9FF
:10285000034144618461C4610462FEF74DF90F488D
:102860001049543001604FF4E131C0E901140C21EA
:10287000C460C0E904418461C461FEF7A9FE00F0B0
:1028800033F84FF47A7400BF00F00EF82046FEF7DC
:1028900043F8F9E730380240005800401C0000209F
:1028A000A08601000048004010B5FDF76BFF10EE58
:1028B000100AFDF7C8FC41EC100BBDE8104053ECCA
:1028C000102B01A0FFF726BB5B4243414C5330382D
:1028D000334B5D20414C53203A2025302E32662068
:1028E0006C75780A0000000010B515A0FFF712FB08
:1028F0001E494420FDF72AFF0C20FDF7CEFF0120E2
:10290000FDF7E1FF1420FEF707F80220FDF79BFF1B
:102910000120FDF7B2FF0120FDF775FF0120FDF753
:1029200082FF0020FDF74EFF11A0FFF7F3FA0EA083
:10293000FFF7F0FABDE810400BA0FFF7EBBA00007C
:102940005B4243414C533038334B5D20416D6269EB
:10295000656E74204C696768742053656E736F727E
:1029600020456E61626C65640A0000001C00002056
:10297000496E697469616C697A65642042432053C9
:10298000656E736F72732053657269657300000022
:10299000000000000000000001020304060708090F
:1029A0000000000001020304C82900080000002004
:1029B0001C000000341F0008E42900081C0000204F
:1029C00094040000441F0008000000000000000004
:1029D0000100000010000000000000000024F400CE
:0429E00000000000F3
:040000050800018965
:00000001FF
