:020000040800F2
:10000000D00400209D010008431700089F1300083A
:100010004117000859050008551B000800000000A2
:10002000000000000000000000000000671700084A
:100030005B0500080000000065170008691700084C
:10004000B7010008B7010008B7010008B7010008B0
:10005000B7010008B7010008B7010008B7010008A0
:10006000B7010008B7010008B7010008B701000890
:10007000B7010008B7010008B7010008B701000880
:10008000B7010008B7010008B7010008B701000870
:10009000B7010008B7010008B7010008B701000860
:1000A000B7010008B7010008B7010008B701000850
:1000B000B7010008B7010008B7010008B701000840
:1000C000B7010008B7010008B7010008B701000830
:1000D000B7010008B7010008B7010008B701000820
:1000E000B7010008B7010008B7010008B701000810
:1000F000B7010008B7010008B7010008B701000800
:10010000B7010008B7010008B7010008B7010008EF
:10011000B7010008B7010008B7010008B7010008DF
:10012000B7010008B7010008B7010008B7010008CF
:10013000B7010008B7010008B7010008B7010008BF
:10014000B7010008B7010008B7010008B7010008AF
:10015000B7010008B7010008B7010008B70100089F
:10016000B7010008B7010008B7010008B70100088F
:10017000B7010008B7010008B7010008000000003F
:10018000B7010008B7010008DFF80CD000F090F8C4
:1001900000480047051D0008D0040020064880479D
:1001A00006480047FEE7FEE7FEE7FEE7FEE7FEE75C
:1001B000FEE7FEE7FEE7FEE7F11700088901000809
:1001C0002DE9F05F0546002092469B46884606468C
:1001D000814640241BE0284641464746224600F01F
:1001E00057F853465A46C01A914110D31146184643
:1001F000224600F03EF82D1A67EB01084F462246D2
:100200000120002100F035F817EB00094E41201EB7
:10021000A4F10104DFDC484631462A464346BDE8E6
:10022000F09FD2B201E000F8012B491EFBD27047CB
:100230000022F6E710B513460A4604461946FFF7B2
:10024000F0FF204610BD30B50B46014600202022AD
:10025000012409E021FA02F59D4205D303FA02F5D3
:10026000491B04FA02F52844151EA2F10102F1DC33
:1002700030BD202A04DB203A00FA02F1002070474A
:100280009140C2F1200320FA03F3194390407047D4
:10029000202A04DB203A21FA02F00021704721FADB
:1002A00002F3D040C2F12002914008431946704742
:1002B000064C074D06E0E06840F0010394E80700B3
:1002C00098471034AC42F6D3FFF762FFE01F0008F6
:1002D00000200008884201DA084670479042FCDDA1
:1002E0001046704738B50C4605466A460121302055
:1002F00000F05EF89DF80000002C02D0E84000F00D
:10030000010038BD42000A489FED0A0B02704160AF
:100310000121417000218170084880ED000B9FEDA4
:10032000080B80ED020B9FED080B80ED040B70476E
:10033000000000209F27F96C78D56E3FB8000020A0
:100340000E7F8FF27ACD6E3F200FD8309E9C6C3F8F
:1003500010B500212D2000F0EDF810212D2000F027
:10036000E9F80821BDE810402D2000F0E3B80000B6
:1003700070B514460D4606460C4A0621322000F0A0
:1003800017F80A4B187893F9011040EA0120306001
:10039000987893F9031040EA01202860187993F9BE
:1003A000051040EA0120206070BD00000800002018
:1003B0000EB50A23009289B2CDE901130246034823
:1003C00001230178406800F03DFA0EBD00000020D6
:1003D00010B5FF220021FFF77DFFC1B2BDE810403C
:1003E000242000F0A7B802460621272000F053B8C9
:1003F00002460521272000F04EB80246042127209E
:1004000000F049B8C1B2222000F094B810B5FF2224
:100410000021FFF75FFFC1B2BDE81040232000F0CC
:1004200089B810B5FF220021FFF754FFC1B2BDE823
:100430001040292000F07EB810B5FF220021FFF700
:1004400049FFC1B2BDE81040282000F073B810B5D4
:10045000FF220021FFF73EFFC1B2BDE8104025207A
:1004600000F068B802460221272000F014B80246C6
:100470000121272000F00FB802460021272000F0BC
:100480000AB80A4601462E2000F005B80A46014681
:100490002F20AFF30080F8B514460D4606466A4695
:1004A0000121FFF785FF01239DF80000AB401CB13F
:1004B00003438DF8003002E098438DF800009DF86A
:1004C0000010304600F036F8F8BD024602212A201E
:1004D000FFF7E1BF024601212A20FFF7DCBF0246F9
:1004E00000212A20FFF7D7BF10B5FF220021FFF718
:1004F000F1FEC1B2BDE81040212000F01BB810B5DC
:10050000FF220021FFF7E6FEC1B2BDE810401D202A
:1005100000F010B810B5FF220021FFF7DBFEC1B2DA
:10052000BDE81040262000F005B8C84000F00100EA
:100530007047000003B583B00A23012204A98DE8A7
:100540000E001346024603480178406800F078FA2E
:1005500005B000BD00000020FEE7704770B50446FE
:1005600000F0E6F80546601C02D004480078044418
:1005700000F0DEF8401BA042FAD370BD100000204E
:100580002DE9F84FDFF87CB100224FF001084FF061
:10059000030A4FF00F090BF1040E00BF0B6808FAB5
:1005A00002F42340A3426ED14D68022D01D0122DDA
:1005B0000ED1D50800EB850CDCF820505607F70E5D
:1005C00009FA07F6B5430E69BE402E43CCF8206009
:1005D000066855000F790AFA05FC07F0030726EABA
:1005E0000C06AF40374307604E68012E05D0022E3F
:1005F00003D0112E01D0122E0ED18668CF6826EAC4
:100600000C06AF40374387604668A6430C79C4F3B5
:100610000014944034434460C6688C6826EA0C0693
:10062000AC403443C4604C68E40065D5364C256862
:1006300045F480452560246822F0030504F48044D5
:100640000094324C2E19D6F8084895072F0F09FA56
:1006500007F5AC432E4DA84201D1002524E02D4DD5
:10066000A84201D101251FE02B4DA84201D102254E
:100670001AE02A4DA84201D1032515E0284DA842D1
:1006800002D1042510E037E0264DA84201D105250E
:100690000AE0254DA84201D1062505E0234DA842D8
:1006A00001D1072500E00825BD402543C6F80858BC
:1006B000DBF800405D464E689C43F60300D51C43C2
:1006C0002C60DEF8004075464E689C43B60300D5AA
:1006D0001C432C600B4D08352C684E689C43F60279
:1006E00000D51C432C60074D0C352C684E689C438C
:1006F000B60200D51C432C60521C102AFFF44EAFEA
:10070000BDE8F88F003C0140443802400030014011
:10071000000002400004024000080240000C0240B9
:10072000001002400014024000180240001C024069
:1007300001488068704700001000002070B5040078
:1007400004D094F83D00002510B106E0012070BDF2
:1007500084F83C50204600F011FA242084F83D0033
:100760002068016821F00101016000F061FB33495C
:100770002268B0FBF1F15160314A6368934206D9B7
:100780004FF4967359434FF47A73B1FBF3F1236836
:10079000491C1962616891420BD84900B0FBF1F223
:1007A000C2F30B02042A01D2042019E0B0FBF1F0DD
:1007B00016E0A3689BB301EBC10202EB0112B0FB90
:1007C000F2F242F48042120530D04BB301EBC10289
:1007D00002EB0111B0FBF1F040F4804040F4004026
:1007E0002168C861D4E90701084321680860D4E999
:1007F0000310084321688860D4E905010843216893
:10080000C8602068016841F0010101602564202072
:1008100084F83D00256384F83E50002070BD00E060
:1008200006E001EB4102B0FBF2F2CCE70120D7E792
:1008300001EB4101B0FBF1F0D0E7000040420F00B6
:10084000A08601002DE9FF4F83B09A46DDE91187AC
:1008500093460446DDF84090FFF76AFF054694F89A
:100860003D00202874D119230122724920460095A9
:1008700000F099FE0028F5D194F83C00012867D0DB
:10088000012084F83C0020680168C90703D1016891
:1008900041F0010101602068016821F400610160FC
:1008A000222084F83D00402084F83E000026266483
:1008B000C4F82490A4F82A805F48E062608D208507
:1008C000CDE9007553465A462046049900F07CFD58
:1008D00028B1206C84F83C60042843D076E0208D59
:1008E000C8B1012820D00228206823D0416980693E
:1008F0000090208D03286BD801282AD04F49022868
:100900003B464FF0000200955BD08846204600F041
:100910004AFEE8BB40E020684169816900910168B6
:1009200041F40071016076E02068016821F4806183
:100930000160F0E7016821F48061016020680168CE
:1009400041F400610160206841698069009062E0C3
:100950006EE02A463946204600F09AFE30B1206CFF
:10096000202833D0012007B0BDE8F08F206847E091
:100970002068016841F40071016020680169606AC3
:10098000421C62620170208D401E2085608D00E057
:100990001CE0401E6085E9E72068016821F4806161
:1009A000016020680169606A421C62620170208DEA
:1009B000401E2085608D401E60853B4600224146DA
:1009C0000095204600F0EFFD0028D1D00320CAE7B3
:1009D0002A463946204600F05BFE0028BFD1206839
:1009E0000169606A421C62620170208D401E208590
:1009F000608D401E608520684169C94349070AD45B
:100A00000169606A421C62620170208D401E20856F
:100A1000608D401E6085208D00287FF46AAF202005
:100A200084F83D0084F83E6084F83C6000209AE73A
:100A3000022098E7020010000000FFFF0400010000
:100A40002DE9FF4F83B09A46DDE9118793460446AE
:100A5000DDF84090FFF76CFE064694F83D00202834
:100A60007DD11923012243492046009600F09BFDC9
:100A700000287CD194F83C00012878D0012084F82B
:100A80003C0020680168C90703D1016841F00101F9
:100A900001602068016821F400610160212084F870
:100AA0003D00402084F83E0000252564C4F82490D1
:100AB000A4F82A803048E062608D2085CDE9007678
:100AC00053465A462046049900F0F6FC80B3206C49
:100AD00084F83C50042848D008E032463946204685
:100AE00000F007FE30B1206C042839D0032007B095
:100AF000BDE8F08F606A411C61622168007808617E
:100B0000208D401E80B22085618D491E618521683F
:100B10004A69D24352070BD468B1606A421C6262D0
:100B200000780861208D401E2085608D401E608504
:100B3000208D0028D1D132463946204600F00CFDE8
:100B40000028D0D154F83D0B016841F400710160D8
:100B5000202004F81E09E57765770020C7E706E046
:100B60002068016841F4007101600120BFE70220A4
:100B7000BDE70000020010000000FFFF10B586B0C6
:100B8000044614216846FFF753FB14492068884245
:100B900021D11348016841F00201016000686946F3
:100BA00000F0020005904FF4406000901220019088
:100BB0000120029003200390042004900948FFF7CD
:100BC000DFFC07481030016841F4800101600068D3
:100BD00000F48000059006B010BD000000580040F1
:100BE0003038024000040240024881680278114413
:100BF00081607047100000200B4810B5016841F477
:100C000000710160016841F480610160016841F494
:100C100080710160032000F061F8002000F006F808
:100C200000F024F8002010BD003C024070B50D4DCE
:100C300004464FF47A712878B1FBF0F00A4909684C
:100C4000B1FBF0F000F0D2FA48B9102C07D2002224
:100C50002146501E00F022F800206C6070BD01207B
:100C600070BD0000100000201C0000200A4808B5DC
:100C7000016841F480410160006800F48040009008
:100C80000548001F016841F080510160006800F0D4
:100C90008050009008BD000044380240F0B40E4B74
:100CA0001B680C46C3F30223C3F10705042D00D9CA
:100CB0000425191D072901D2002300E0DB1E0126AF
:100CC00006FA05F1491E214099409E40761E1640C5
:100CD0003143F0BC00F036BD0CED00E0064900F0F9
:100CE000070208684FF6FF03184040EA0220034A53
:100CF00010430860704700000CED00E00000FA05AA
:100D00002DE9F0470E46050065D0DFF81481D8F8CC
:100D10000000F7B200F00F00B04207D288F8007070
:100D2000D8F8000000F00F00B04254D128683D4CC4
:100D3000810712D5400703D5206840F4E0502060B9
:100D40002878000703D5206840F4604020602068C0
:100D5000A96820F0F000084320602878C0072DD053
:100D6000304968680839012812D0022813D00328B6
:100D700011D00968890700292DDA216821F00301C3
:100D800001432160FFF7D4FC814641F2883A0EE02E
:100D900009688903EFE709688901ECE7FFF7C8FCF8
:100DA000A0EB0901514502D90320BDE8F087206876
:100DB000696800F00C00B0EB810FEFD1D8F800109B
:100DC000404601F00F01B14207D90770006800F0FA
:100DD0000F00B04201D00120E7E72878400705D591
:100DE0002068E96820F4E050084320602878000774
:100DF00006D52068296920F4604040EAC1002060DF
:100E000000F036F82168084AC1F30311515CC8406C
:100E1000064908600020FFF709FF0020C5E7000031
:100E2000003C024008380240C81F00081C00002097
:100E30000448054900680968044AC1F38221515CED
:100E4000C84070471C00002008380240D81F000826
:100E50000448054900680968044AC1F34231515CFD
:100E6000C84070471C00002008380240D81F000806
:100E7000154810B5006810F00C02144813D041104A
:100E8000042A0FD0082A0ED10F4C241F2268236891
:100E900002F03F025B0207D52068C0F38810A0FB78
:100EA000010106E0084610BD2168C1F38811A1FBCD
:100EB00000010023FFF784F92168C1F30141491CB7
:100EC0004900B0FBF1F010BD083802400024F400E6
:100ED0002DE9F84F050076D02878DFF8F8B2BE4C3F
:100EE000C00749D0DBF800105846C1F38101012941
:100EF00008D00068C0F3810002280AD1201D0068D4
:100F0000400206D52068800336D568680028E2D004
:100F100032E06868B0F5803F10D0B0F5A02F2068AF
:100F200010D020F480302060206820F480202060E1
:100F30006868A0B1FFF7FCFB06460CE0206840F4AF
:100F40008030F4E740F480202060F7E7FFF7F0FB03
:100F5000801B642873D820688003F7D50CE0FFF766
:100F6000E7FB064605E000BFFFF7E2FB801B6428B5
:100F7000F0D820688003F7D42878DFF860828007F3
:100F80004FF000093ED5DBF80010584611F00C0F69
:100F900009D00068C0F3810002280BD18D48001FE2
:100FA0000068400206D42068800715D5E86801284B
:100FB00009D111E0E868B8B10120C8F80000FFF7D6
:100FC000B7FB064605E002E1FFF7B2FB801B0228F3
:100FD000C0D820688007F7D52068296920F0F8007C
:100FE00040EAC10020600DE0C8F80090FFF7A0FBC8
:100FF000064604E0FFF79CFB801B02281FD82068F0
:101000008007F7D42878000722D5724E74486969A2
:101010006C3671B101210160FFF78AFB074604E0DD
:10102000FFF786FBC01B022809D830688007F7D578
:101030000EE0C0F80090FFF77BFB074605E083E079
:10104000FFF776FBC01B02287ED830688007F7D4F4
:101050002878400768D5DFF87CA100270AF1380A14
:10106000DAF80000C0000BD4DAF8001041F080512B
:10107000CAF80010DAF80000012700F08050009054
:10108000584E3068C00510D4306840F4807030602D
:10109000FFF74EFB009005E0FFF74AFB0099401A6E
:1010A000022851D83068C005F6D54A4EA86868367F
:1010B00001280FD00528306810D020F001003060E2
:1010C000306820F004003060A868B8B1FFF730FB4A
:1010D00000900FE0306840F00100F4E740F00400B9
:1010E0003060F7E7FFF724FB0099411A41F288309E
:1010F000814264D830688007F4D50EE0FFF718FB12
:10110000009007E0FFF714FB0099411A41F2883084
:10111000814254D830688007F4D42FB1DAF8001037
:1011200021F08051CAF80010A869C0B3DBF80010A4
:10113000C1F3810102294AD00228484607D0C8F8E5
:101140006000FFF7F5FA00E039E005463AE047466F
:10115000C8F86000FFF7ECFA064604E0FFF7E8FA8B
:10116000801B02282BD820688001F7D4D5E907011D
:101170000843A96A1C4A490802EB01416A6A41EA2C
:101180008211084395F82C1040EA01611148001FB4
:10119000016001203866FFF7CBFA054605E014E050
:1011A000FFF7C6FA401B022809D820688001F7D54E
:1011B0000BE000BFFFF7BCFA401B022802D9032056
:1011C000BDE8F88F20688001F4D40020F8E7012002
:1011D000F6E70000083802400038024000004742AD
:1011E000800E4742007000400000FFFF10B5401E17
:1011F000B0F1807F01D3012010BD4FF0E024606189
:101200000F21601700F09EFA0020A06107202061E6
:10121000002010BD70B5040004D094F839000025FA
:1012200010B106E0012070BD84F83850204600F06F
:1012300023F8242084F839002068C16821F4005183
:10124000C160204600F0FEFA2068016921F4904157
:1012500001612068416921F02A0141612068C1686B
:1012600041F40051C160E563202084F8390084F81E
:101270003A00002070BD000010B586B0044614216D
:101280006846FEF7D5FF14492068884221D11348EB
:10129000016841F480210160006800F4802005901D
:1012A0000E481038016841F0040101600068694689
:1012B00000F0040005904FF440600090022001907F
:1012C0000120029003200390072004900448FFF7B8
:1012D00057F906B010BD00000048004040380240F9
:1012E000000802402DE9F843044690F839001F46F3
:1012F00016460D46202850D1A5B19EB194F838006D
:1013000001284AD0012084F838004FF00008C4F8C2
:101310003C80212084F83900FFF70AFAA684814630
:10132000E68426E00120BDE8F883E08C401EE084DE
:10133000A0684B46B0F5805F4FF000024FF080018F
:101340002046009703D000F0D3FBE8B90DE000F091
:10135000CFFBC8B928882168C0F30800486020691D
:1013600008B16D1C05E0AD1C03E0216815F8010B08
:101370004860E08C0028D8D14B460022402120460E
:10138000009700F0B5FB08B10320CCE7202084F8DB
:10139000390084F838800020C5E70220C3E7FEE763
:1013A00001684A69D24352050CD46FF480624A61E5
:1013B00004210164002140F8301F20224273017390
:1013C00001207047002070472DE9F84F044600685F
:1013D00089460B9D01689846174641F4806101607B
:1013E0002068016841F48071016000954FF0011A96
:1013F0000022514620460A9B00F0D5F8F0BB216838
:1014000009F0FE0008610AF1010B2B4659462046FF
:101410000A9A00F0F9F818B1206C042812D03AE0CA
:1014200020684169806900902A4620460A9900F0A8
:1014300060F950B1206C04282DD12068016841F476
:10144000007101600120BDE8F88FFEB2B8F1010F14
:1014500009D02168380A08612A4620460A9900F016
:1014600048F90028E6D1206806612A4620460A99F4
:1014700000F03FF90028DDD1206800E00BE00168B2
:1014800041F48071016000950022514620460A9B7C
:1014900000F089F808B10320D5E7216809F0FF00C2
:1014A00040F0010008612B46594620460A9A00F098
:1014B000ABF80028B0D1C6E72DE9F8430446006830
:1014C0000D46DDE9089701689846164641F480719B
:1014D00001604B4600224FF001112046009700F0BA
:1014E00062F8E8B9216805F0FE0008613B464A460B
:1014F0001849204600F088F828B1206C04280FD144
:101500000120BDE8F88320684169806900903A466F
:101510004946204600F0EDF820B1206C042813D095
:101520000320EEE7F5B2B8F1010F09D02168300AC7
:1015300008613A464946204600F0DBF80028ECD125
:10154000206805610020DCE72068016841F4007133
:101550000160D5E70200010070B516460D4604464D
:101560001AE02046FFF71CFF08B1012070BD681C7F
:1015700012D025B1FFF7DCF8801BA8420CD954F833
:10158000400F40F0200044F8100900202060202186
:1015900061732073032070BD20684069C043400719
:1015A000DFD4002070BD2DE9F0471E4690460D4661
:1015B0000446C1F30747DDF8209012E0701C10D0FC
:1015C0002EB1FFF7B5F8A0EB0900B04209D9002011
:1015D00044F8300F20216173A07320730320BDE80D
:1015E000F0872068012F0AD0806925EA00000004F6
:1015F000000C06D000214145E0D00020EFE7406913
:10160000F3E70121F7E700002DE9F0479A469146FC
:101610000D46044600264FF02008C1F307472AE094
:1016200020684069C043400512D42068016841F435
:101630000071016021686FF48060486104202064BB
:10164000266384F83D8084F83C600120BDE8F08783
:10165000B9F1FF3F0FD0B9F1000F05D0FFF768F8DF
:10166000A0EB0A01494506D944F8306F84F80D8093
:1016700026730320EAE72068012F07D0D0F818006E
:1016800025EA00000004000CE0D0C9E74069F7E754
:101690002DE9F041002590460E460446202721E022
:1016A0004069C043C0060CD421686FF01000486147
:1016B0002564256384F83D7084F83C500120BDE822
:1016C000F0812EB1FFF734F8A0EB0800B04209D941
:1016D00054F8400F40F0200044F80409677025706A
:1016E0000320ECE720684169C9434906D8D40020AB
:1016F000E5E770B516460D4604461AE02046FFF7AA
:101700004FFE08B1012070BD681C12D025B1FFF753
:101710000FF8801BA8420CD954F8400F40F020006D
:1017200044F81009002020602021617320730320F9
:1017300070BD20684069C0430006DFD4002070BD42
:10174000FEE770470907090E002806DA00F00F00CF
:1017500000F1E02080F8141D704700F1E02080F8CF
:101760000014704770477047FFF73EBA30B593B02A
:1017700030216846FEF75CFD14210CA8FEF758FDE9
:1017800019480025016841F080510160006800F0AF
:10179000805011901548016841F480410160006853
:1017A000022400F480401190012000900004019078
:1017B0008001CDE9064008AA0420A82182E8130090
:1017C0000B906846FFF784FB0CA90F2081E83100DD
:1017D0004FF4A0500F90E002109005210CA8FFF7E5
:1017E0008FFA13B030BD0000403802400070004056
:1017F0001048016841F4700101600F48016841F030
:10180000010101600C4A00210832116002680B4B93
:101810001A400260031D0A4A1A60026822F48022FC
:10182000026005480C3001600249580680390860A2
:101830007047000088ED00E000380240FFFFF6FE30
:10184000103000242DE9F04104460068016921F4BC
:101850004052E168114301612168C86849F20C6295
:1018600090432369A268E5691A4363692B431A43CD
:101870000243CA602168486920F44072A06910439D
:101880004861E1696425B1F5004F9748974A21689E
:101890004FF032083FD0914201D081427CD1FFF716
:1018A000D7FA00EBC00101EB001061688900B0FBC2
:1018B000F1F6FFF7CDFA00EBC00101EB0010616813
:1018C0008900B0FBF1F0B0FBF5F06FF01801484370
:1018D00006EB800108EB0110B0FBF5F000F0F0061C
:1018E000FFF7B6FA00EBC00101EB00106168890058
:1018F000B0FBF1F0B0FBF5F006EB0016FFF7A8FA2D
:1019000000EBC00101EB001061688900B0FBF1F74A
:10191000FFF79EFAD2E0914201D081423DD1FFF71C
:1019200097FA00EBC00101EB001061684900B0FBC1
:10193000F1F0B0FBF5F00601FFF78AFA00EBC00109
:1019400001EB001061684900B0FBF1F7FFF780FA86
:1019500000EBC00101EB001061684900B0FBF1F041
:10196000B0FBF5F06FF01801484307EB800108EB7E
:10197000C100B0FBF5F000F0F80006EB4006FFF701
:1019800067FA00EBC00101EB001061684900B0FB91
:10199000F1F7FFF75DFA3CE055E0FFF749FA00EB9D
:1019A000C00101EB001061684900B0FBF1F0B0FB31
:1019B000F5F00601FFF73CFA00EBC00101EB001067
:1019C00061684900B0FBF1F7FFF732FA00EBC001A4
:1019D00001EB001061684900B0FBF1F0B0FBF5F0DD
:1019E0006FF01801484307EB800108EBC100B0FB22
:1019F000F5F000F0F80006EB4006FFF719FA00EBEF
:101A0000C00101EB001061684900B0FBF1F7FFF77E
:101A10000FFA00EBC00101EB001061684900B0FB58
:101A2000F1F0B0FBF5F06FF01801484307EB8001CF
:101A300008EBC100B0FBF5F000F00700216830446E
:101A40008860BDE8F081FFF7F3F900EBC00101EB1E
:101A5000001061688900B0FBF1F6FFF7E9F900EBCF
:101A6000C00101EB001061688900B0FBF1F0B0FB30
:101A7000F5F06FF01801484306EB800108EB011008
:101A8000B0FBF5F000F0F006FFF7D2F900EBC00173
:101A900001EB001061688900B0FBF1F0B0FBF5F0DC
:101AA00006EB0016FFF7C4F900EBC00101EB0010D4
:101AB00061688900B0FBF1F7FFF7BAF900EBC001EC
:101AC00001EB001061688900B0FBF1F0B0FBF5F0AC
:101AD0006FF01801484307EB800108EB0110B0FBE1
:101AE000F5F000F00F00A9E70014014000100140DC
:101AF0002DE9F041984617460E460446069D1DE026
:101B0000681C1BD02DB1FEF713FEA0EB0800A84205
:101B100014D92068C16821F4D071C160206841697E
:101B200021F001014161202084F8390084F83A0055
:101B3000002084F838000320BDE8F08120680068A8
:101B400036EA000004D00020B842D9D00020F3E7E4
:101B50000120F9E7FEE700000FB4054B10B503A91B
:101B6000044A029800F018F810BC5DF814FB00005D
:101B7000ED1C00082000002002E008C8121F08C168
:101B8000002AFAD170477047002001E001C1121FFE
:101B9000002AFBD1704700002DE9FF4F89B09B461A
:101BA0000446002506E025280BD05A460B9990479D
:101BB000641C6D1C20780028F5D10DB02846BDE8C6
:101BC000F08F0027B8460122474900E0074314F888
:101BD000013F203B02FA03F00842F7D120782E287B
:101BE00019D114F8010F47F004072A280ED06FF01E
:101BF0002F022078A0F1300109290CD808EB8801C8
:101C000002EB410100EB0108641CF2E70A98641C36
:101C100050F8048B0A9020780028CED0642808D091
:101C2000692806D075281ED05A460B9990476D1C1E
:101C300058E00A994FF00A0901C90A91002802DA0E
:101C400040422D2102E0390504D52B218DF82010CA
:101C5000012103E0F90704D02021F7E78A4608AE06
:101C60000DE00021FAE70A994FF00A0901C90A912B
:101C7000F7E74946FEF7E7FA303106F8011D00287C
:101C8000F7D1ADEB060000F12009780701D44FF041
:101C90000108C84502DDA8EB090000E000208046ED
:101CA000002706E008A85A46C05D0B9990476D1CB6
:101CB0007F1C5745F6DB04E030205A460B999047CD
:101CC0006D1CB8F10001A8F10108F5DC05E016F87B
:101CD000010B5A460B9990476D1CB9F10001A9F10F
:101CE0000109F4DC641C65E70928010013B54FF60F
:101CF000FF73012269460248FFF7F4FA00981CBD01
:101D00007800002008B5FEF777FFFFF72FFD224887
:101D10000024016841F080010160016801F0800148
:101D20000091016841F002010160016801F00201C7
:101D30000091016841F0040101600068174900F05A
:101D400004000090164801601649C0E901144FF4E0
:101D50008041C0E9034144618461C4610462FEF7CB
:101D6000EDFC0F481049543001604FF4E131C0E9F7
:101D700001140C21C460C0E904418461C461FFF70F
:101D800049FA00F083F84FF47A7400BF00F00EF8BF
:101D90002046FEF7E3FBF9E73038024000580040E8
:101DA00024000020A0860100004800403EB502AAA1
:101DB00001A96846FEF7DCFA9DE80E0019A0FFF7BE
:101DC000CBFE00210846FEF78DFA04460221FEF7FD
:101DD000ACFB10B11DA0FFF7BFFE03212046FEF7AC
:101DE000A4FB10B11CA0FFF7B7FE04212046FEF7AC
:101DF0009CFB10B11CA0FFF7AFFE05212046FEF7AB
:101E000094FB10B11BA0FFF7A7FE06212046FEF7AA
:101E10008CFB10B11BA0FFF79FFE0BA0FFF79CFEF1
:101E20003EBD00005B4243414343333136475D20B2
:101E300078203A20256420202079203A202564202B
:101E400020207A203A2025640A0D0000202866729E
:101E5000656566616C6C29002028696E6163746930
:101E600076697479290000002028616374697669B5
:101E7000747929002028646F75626C652074617024
:101E800029000000287461702900000010B539A0F5
:101E9000FFF762FE42495320FEF734FAFEF758FA84
:101EA0004B20FEF795FA4B20FEF7D1FA0A20FEF7F9
:101EB00031FB0120FEF797FA0120FEF799FA012085
:101EC000FEF79BFA0120FEF7CDFA0120FEF7CFFACC
:101ED0000120FEF7D1FA0020FEF7F7FA0020FEF706
:101EE000F9FA0120FEF7FBFA3220FEF708FB0F207B
:101EF000FEF7FAFA5020FEF785FAC820FEF786FAB8
:101F00000720FEF799FA2D20FEF78BFA0021062014
:101F1000FEF7BCFA00210520FEF7B8FA00210220E6
:101F2000FEF7B4FA00210420FEF7B0FA00210320E6
:101F3000FEF7ACFA01210620FEF7A3FA01210520E5
:101F4000FEF79FFA01210220FEF79BFA01210420EF
:101F5000FEF797FA01210320FEF793FA11A0FFF78D
:101F6000FBFD18A0FFF7F8FDBDE8104015A0FFF736
:101F7000F3BD00005B4243414343333136475D20AC
:101F80003361786973206163636C65746F726D652A
:101F900074657220456E61626C65640A0000000021
:101FA00024000020496E697469616C697A65642057
:101FB00042432053656E736F727320536572696577
:101FC000730A00000A00000000000000000000008A
:101FD00001020304060708090000000001020304CF
:101FE000002000080000002024000000781B0008EA
:101FF0002420000824000020AC040000881B0008F6
:1020000000000000000000000000000000000000D0
:102010000100000010000000000000000024F40097
:0420200000000000BC
:040000050800018965
:00000001FF
