:020000040800F2
:10000000B00400209D010008F3180008BB1400088C
:10001000F11800083D050008051D0008000000005B
:100020000000000000000000000000001719000898
:100030003F05000800000000151900081919000804
:10004000B7010008B7010008B7010008B7010008B0
:10005000B7010008B7010008B7010008B7010008A0
:10006000B7010008B7010008B7010008B701000890
:10007000B7010008B7010008B7010008B701000880
:10008000B7010008B7010008B7010008B701000870
:10009000B7010008B7010008B7010008B701000860
:1000A000B7010008B7010008B7010008B701000850
:1000B000B7010008B7010008B7010008B701000840
:1000C000B7010008B7010008B7010008B701000830
:1000D000B7010008B7010008B7010008B701000820
:1000E000B7010008B7010008B7010008B701000810
:1000F000B7010008B7010008B7010008B701000800
:10010000B7010008B7010008B7010008B7010008EF
:10011000B7010008B7010008B7010008B7010008DF
:10012000B7010008B7010008B7010008B7010008CF
:10013000B7010008B7010008B7010008B7010008BF
:10014000B7010008B7010008B7010008B7010008AF
:10015000B7010008B7010008B7010008B70100089F
:10016000B7010008B7010008B7010008B70100088F
:10017000B7010008B7010008B7010008000000003F
:10018000B7010008B7010008DFF80CD000F090F8C4
:1001900000480047B51E0008B0040020064880470C
:1001A00006480047FEE7FEE7FEE7FEE7FEE7FEE75C
:1001B000FEE7FEE7FEE7FEE7A11900088901000857
:1001C0002DE9F05F0546002092469B46884606468C
:1001D000814640241BE0284641464746224600F01F
:1001E00057F853465A46C01A914110D31146184643
:1001F000224600F03EF82D1A67EB01084F462246D2
:100200000120002100F035F817EB00094E41201EB7
:10021000A4F10104DFDC484631462A464346BDE8E6
:10022000F09FD2B201E000F8012B491EFBD27047CB
:100230000022F6E710B513460A4604461946FFF7B2
:10024000F0FF204610BD30B50B46014600202022AD
:10025000012409E021FA02F59D4205D303FA02F5D3
:10026000491B04FA02F52844151EA2F10102F1DC33
:1002700030BD202A04DB203A00FA02F1002070474A
:100280009140C2F1200320FA03F3194390407047D4
:10029000202A04DB203A21FA02F00021704721FADB
:1002A00002F3D040C2F12002914008431946704742
:1002B000064C074D06E0E06840F0010394E80700B3
:1002C00098471034AC42F6D3FFF762FF982000083D
:1002D000B820000810B5002000F078F800F0F9010F
:1002E000BDE81040002000F011B910B5002000F06A
:1002F0006DF840F02001BDE81040002000F006B984
:1003000010B5002000F062F840F00601BDE8104092
:10031000002000F0FBB810B5002000F057F840F0C6
:100320000801BDE81040002000F0F0B8420002488B
:100330000270416070470000000000201CB5E520FD
:100340008DF804000A2000900348012301AA0178D7
:10035000406800F069FA1CBD0000002010B50020C4
:1003600000F034F80446014608A001F0CDFC44F04A
:100370000101002000F0CAF8002000F027F8014633
:10038000BDE8104001A001F0BFBC0000706F7765B0
:10039000724F6E203A2025640A00000010B5132029
:1003A00000F014F80446FFF7C9FFC4F3401010BD75
:1003B00010B5182000F00AF860F30704192000F0C7
:1003C00005F860F30F24A0B210BD00001FB50A238A
:1003D000012203A98DE80E0040F0800204480123A9
:1003E0000178406800F0BCFA9DF80C0004B010BD24
:1003F0000000002010B504460F20FFF7E7FF1CB1F6
:10040000012C06D0022C09D000F0CF0040F01001E2
:1004100006E000F0CF0040F0200101E040F03001A4
:10042000BDE810400F2000F071B810B5C1B2040A49
:100430000A2000F06BF82146BDE810400B2000F0C8
:1004400065B810B504460F20FFF7C0FF54B1012C6A
:100450000BD0022C0ED040F0C001BDE810400F20A0
:1004600000F054B800F03F01F7E700F03F0040F023
:100470004001F2E700F03F0040F08001EDE710B5E9
:10048000C1B2040A082000F041F82146BDE810403E
:10049000092000F03BB8102809D2DFE800F0080A74
:1004A0000C0E10121416181A1C1E202224260021CD
:1004B0001CE010211AE0202118E0302116E0402134
:1004C00014E0502112E0602110E070210EE0802144
:1004D0000CE090210AE0A02108E0B02106E0C02154
:1004E00004E0D02102E0E02100E0F0210C2000F047
:1004F0000DB801460E2000F009B80146012000F0B9
:1005000005B80146022000F001B8000003B583B031
:100510000A23012204A98DE80E0040F0800204485D
:1005200001230178406800F019FB05B000BD000010
:100530000000002001460320FFF7E8BFFEE77047F8
:1005400070B5044600F0E6F80546601C02D0044889
:100550000078044400F0DEF8401BA042FAD370BDDE
:10056000080000202DE9F84FDFF87CB100224FF0A1
:1005700001084FF0030A4FF00F090BF1040E00BF02
:100580000B6808FA02F42340A3426ED14D68022D95
:1005900001D0122D0ED1D50800EB850CDCF82050CF
:1005A0005607F70E09FA07F6B5430E69BE402E430B
:1005B000CCF82060066855000F790AFA05FC07F0B0
:1005C000030726EA0C06AF40374307604E68012E4A
:1005D00005D0022E03D0112E01D0122E0ED1866826
:1005E000CF6826EA0C06AF40374387604668A643CB
:1005F0000C79C4F30014944034434460C6688C689A
:1006000026EA0C06AC403443C4604C68E40065D56F
:10061000364C256845F480452560246822F00305A2
:1006200004F480440094324C2E19D6F808489507FB
:100630002F0F09FA07F5AC432E4DA84201D1002532
:1006400024E02D4DA84201D101251FE02B4DA842E9
:1006500001D102251AE02A4DA84201D1032515E057
:10066000284DA84202D1042510E037E0264DA842CB
:1006700001D105250AE0254DA84201D1062505E056
:10068000234DA84201D1072500E00825BD402543A0
:10069000C6F80858DBF800405D464E689C43F603F8
:1006A00000D51C432C60DEF8004075464E689C4324
:1006B000B60300D51C432C600B4D08352C684E68E2
:1006C0009C43F60200D51C432C60074D0C352C686A
:1006D0004E689C43B60200D51C432C60521C102A65
:1006E000FFF44EAFBDE8F88F003C014044380240B3
:1006F00000300140000002400004024000080240B7
:10070000000C024000100240001402400018024099
:10071000001C02400148806870470000080000206B
:1007200070B5040004D094F83D00002510B106E037
:10073000012070BD84F83C50204600F0ADFA242022
:1007400084F83D002068016821F00101016000F09B
:10075000FDFB33492268B0FBF1F15160314A636817
:10076000934206D94FF4967359434FF47A73B1FB11
:10077000F3F12368491C1962616891420BD8490062
:10078000B0FBF1F2C2F30B02042A01D2042019E0FB
:10079000B0FBF1F016E0A3689BB301EBC10202EBE2
:1007A0000112B0FBF2F242F48042120530D04BB39A
:1007B00001EBC10202EB0111B0FBF1F040F480400B
:1007C00040F400402168C861D4E90701084321686A
:1007D0000860D4E90310084321688860D4E9050162
:1007E00008432168C8602068016841F00101016088
:1007F0002564202084F83D00256384F83E500020C5
:1008000070BD00E006E001EB4102B0FBF2F2CCE784
:100810000120D7E701EB4101B0FBF1F0D0E7000088
:1008200040420F00A08601002DE9F84F1F46904678
:100830008A460446DDF82890FFF76CFF064694F8D8
:100840003D0020287ED119230122434920460096ED
:1008500000F081FF00287DD194F83C00012879D078
:10086000012084F83C0020680168C90703D10168B1
:1008700041F0010101602068016821F4006101601C
:10088000212084F83D00102084F83E0000252564D6
:10089000C4F8248067853148E062608D2085334646
:1008A0004A465146204600F01DFE28B1206C84F8CF
:1008B0003C5004284CD00DE02068416980690090CC
:1008C00030E032464946204600F0EBFF28B1206C6C
:1008D000042838D00320BDE8F88F606A411C6162AB
:1008E000216800780861608D401E6085208D401E63
:1008F00080B2208521684A69D24352070BD450B197
:10090000606A421C626200780861608D401E6085EA
:10091000208D401E208532464946204600F0F4FED8
:100920000028D4D1208D0028CBD154F83D0B01688C
:1009300041F400710160202004F81E09E577657715
:100940000020C8E706E02068016841F400710160FA
:100950000120C0E70220BEE7020010000000FFFFF8
:100960002DE9FF4F83B09A46DDE91187934604468F
:10097000DDF84090FFF7CEFE054694F83D002028B4
:1009800074D11923012272492046009500F0E3FE3C
:100990000028F5D194F83C00012867D0012084F8A4
:1009A0003C0020680168C90703D1016841F00101DA
:1009B00001602068016821F400610160222084F850
:1009C0003D00402084F83E0000262664C4F82490B0
:1009D000A4F82A805F48E062608D2085CDE900752B
:1009E00053465A462046049900F0C6FD28B1206CB3
:1009F00084F83C60042843D076E0208DC8B10128FB
:100A000020D00228206823D0416980690090208D81
:100A100003286BD801282AD04F4902283B464FF0C3
:100A2000000200955BD08846204600F094FEE8BBAB
:100A300040E02068416981690091016841F40071DA
:100A4000016076E02068016821F480610160F0E7D0
:100A5000016821F4806101602068016841F400614F
:100A60000160206841698069009062E06EE02A467A
:100A70003946204600F0E4FE30B1206C202833D007
:100A8000012007B0BDE8F08F206847E020680168CA
:100A900041F40071016020680169606A421C626271
:100AA0000170208D401E2085608D00E01CE0401EFE
:100AB0006085E9E72068016821F4806101602068B1
:100AC0000169606A421C62620170208D401E2085AF
:100AD000608D401E60853B460022414600952046C1
:100AE00000F039FE0028D1D00320CAE72A46394653
:100AF000204600F0A5FE0028BFD120680169606A89
:100B0000421C62620170208D401E2085608D401E57
:100B1000608520684169C94349070AD40169606A50
:100B2000421C62620170208D401E2085608D401E37
:100B30006085208D00287FF46AAF202084F83D0076
:100B400084F83E6084F83C6000209AE7022098E731
:100B5000020010000000FFFF040001002DE9FF4F1C
:100B600083B09A46DDE9118793460446DDF840904C
:100B7000FFF7D0FD064694F83D0020287DD11923CB
:100B8000012243492046009600F0E5FD00287CD173
:100B900094F83C00012878D0012084F83C002068BB
:100BA0000168C90703D1016841F0010101602068B3
:100BB000016821F400610160212084F83D0040209B
:100BC00084F83E0000252564C4F82490A4F82A8007
:100BD0003048E062608D2085CDE9007653465A4664
:100BE0002046049900F040FD80B3206C84F83C500E
:100BF000042848D008E032463946204600F051FE2D
:100C000030B1206C042839D0032007B0BDE8F08F44
:100C1000606A411C6162216800780861208D401E75
:100C200080B22085618D491E618521684A69D24361
:100C300052070BD468B1606A421C62620078086196
:100C4000208D401E2085608D401E6085208D0028EF
:100C5000D1D132463946204600F056FD0028D0D189
:100C600054F83D0B016841F400710160202004F844
:100C70001E09E57765770020C7E706E02068016870
:100C800041F4007101600120BFE70220BDE70000D0
:100C9000020010000000FFFF10B586B004461421CA
:100CA0006846FFF7C5FA14492068884221D11348E5
:100CB000016841F0020101600068694600F002002D
:100CC00005904FF4406000901220019001200290A6
:100CD00003200390042004900948FFF743FC0748D1
:100CE0001030016841F480010160006800F4800068
:100CF000059006B010BD000000580040303802409A
:100D00000004024002488168027811448160704703
:100D1000080000200B4810B5016841F40071016023
:100D2000016841F480610160016841F480710160F3
:100D3000032000F061F8002000F006F800F024F82D
:100D4000002010BD003C024070B50D4D04464FF42C
:100D50007A712878B1FBF0F00A490968B1FBF0F02C
:100D600000F0D2FA48B9102C07D200222146501EBA
:100D700000F022F800206C6070BD012070BD000002
:100D800008000020140000200A4808B5016841F45A
:100D900080410160006800F4804000900548001F19
:100DA000016841F080510160006800F080500090BF
:100DB00008BD000044380240F0B40E4B1B680C46DE
:100DC000C3F30223C3F10705042D00D90425191D1F
:100DD000072901D2002300E0DB1E012606FA05F1F7
:100DE000491E214099409E40761E16403143F0BC7A
:100DF00000F080BD0CED00E0064900F00702086835
:100E00004FF6FF03184040EA0220034A10430860EF
:100E1000704700000CED00E00000FA052DE9F047F6
:100E20000E46050065D0DFF81481D8F80000F7B24F
:100E300000F00F00B04207D288F80070D8F8000028
:100E400000F00F00B04254D128683D4C810712D504
:100E5000400703D5206840F4E05020602878000760
:100E600003D5206840F4604020602068A96820F025
:100E7000F000084320602878C0072DD0304968680A
:100E80000839012812D0022813D0032811D009688C
:100E9000890700292DDA216821F00301014321602F
:100EA000FFF738FC814641F2883A0EE00968890371
:100EB000EFE709688901ECE7FFF72CFCA0EB0901DB
:100EC000514502D90320BDE8F0872068696800F029
:100ED0000C00B0EB810FEFD1D8F80010404601F0C4
:100EE0000F01B14207D90770006800F00F00B0424F
:100EF00001D00120E7E72878400705D52068E96898
:100F000020F4E050084320602878000706D52068C8
:100F1000296920F4604040EAC100206000F036F802
:100F20002168084AC1F30311515CC84006490860B2
:100F30000020FFF709FF0020C5E70000003C024049
:100F400008380240802000081400002004480549A9
:100F500000680968044AC1F38221515CC8407047A7
:100F60001400002008380240902000080448054979
:100F700000680968044AC1F34231515CC8407047B7
:100F8000140000200838024090200008154810B5D1
:100F9000006810F00C02144813D04110042A0FD03E
:100FA000082A0ED10F4C241F2268236802F03F024A
:100FB0005B0207D52068C0F38810A0FB010106E0A2
:100FC000084610BD2168C1F38811A1FB0001002370
:100FD000FFF7F6F82168C1F30141491C4900B0FB55
:100FE000F1F010BD083802400024F4002DE9F84F5C
:100FF000050076D02878DFF8F8B2BE4CC00749D09B
:10100000DBF800105846C1F38101012908D00068BF
:10101000C0F3810002280AD1201D0068400206D5D5
:101020002068800336D568680028E2D032E068681E
:10103000B0F5803F10D0B0F5A02F206810D020F47C
:1010400080302060206820F4802020606868A0B193
:10105000FFF760FB06460CE0206840F48030F4E7C0
:1010600040F480202060F7E7FFF754FB801B6428E2
:1010700073D820688003F7D50CE0FFF74BFB0646DA
:1010800005E000BFFFF746FB801B6428F0D820680E
:101090008003F7D42878DFF8608280074FF00009DA
:1010A0003ED5DBF80010584611F00C0F09D000684F
:1010B000C0F3810002280BD18D48001F0068400258
:1010C00006D42068800715D5E868012809D111E009
:1010D000E868B8B10120C8F80000FFF71BFB06461E
:1010E00005E002E1FFF716FB801B0228C0D820684C
:1010F0008007F7D52068296920F0F80040EAC10090
:1011000020600DE0C8F80090FFF704FB064604E0FD
:10111000FFF700FB801B02281FD820688007F7D448
:101120002878000722D5724E744869696C3671B10F
:1011300001210160FFF7EEFA074604E0FFF7EAFA43
:10114000C01B022809D830688007F7D50EE0C0F828
:101150000090FFF7DFFA074605E083E0FFF7DAFAD1
:10116000C01B02287ED830688007F7D42878400753
:1011700068D5DFF87CA100270AF1380ADAF8000008
:10118000C0000BD4DAF8001041F08051CAF800100A
:10119000DAF80000012700F080500090584E3068C7
:1011A000C00510D4306840F480703060FFF7B2FAA8
:1011B000009005E0FFF7AEFA0099401A022851D8D6
:1011C0003068C005F6D54A4EA868683601280FD0A9
:1011D0000528306810D020F001003060306820F021
:1011E00004003060A868B8B1FFF794FA00900FE0EF
:1011F000306840F00100F4E740F004003060F7E7A9
:10120000FFF788FA0099411A41F28830814264D888
:1012100030688007F4D50EE0FFF77CFA009007E015
:10122000FFF778FA0099411A41F28830814254D888
:1012300030688007F4D42FB1DAF8001021F0805123
:10124000CAF80010A869C0B3DBF80010C1F381012F
:1012500002294AD00228484607D0C8F86000FFF7A4
:1012600059FA00E039E005463AE04746C8F8600020
:10127000FFF750FA064604E0FFF74CFA801B0228FD
:101280002BD820688001F7D4D5E907010843A96A63
:101290001C4A490802EB01416A6A41EA821108438B
:1012A00095F82C1040EA01611148001F01600120EF
:1012B0003866FFF72FFA054605E014E0FFF72AFA33
:1012C000401B022809D820688001F7D50BE000BF39
:1012D000FFF720FA401B022802D90320BDE8F88F4F
:1012E00020688001F4D40020F8E70120F6E7000030
:1012F000083802400038024000004742800E474252
:10130000007000400000FFFF10B5401EB0F1807F6C
:1013100001D3012010BD4FF0E02460610F21601760
:1013200000F0E8FA0020A06107202061002010BD35
:1013300070B5040004D094F83900002510B106E01F
:10134000012070BD84F83850204600F023F8242096
:1013500084F839002068C16821F40051C16020463A
:1013600000F048FB2068016921F490410161206888
:10137000416921F02A0141612068C16841F40051AE
:10138000C160E563202084F8390084F83A00002029
:1013900070BD000010B586B0044614216846FEF703
:1013A00047FF14492068884221D11348016841F45D
:1013B00080210160006800F4802005900E481038FC
:1013C000016841F0040101600068694600F0040012
:1013D00005904FF44060009002200190012002909F
:1013E00003200390072004900448FFF7BBF806B0E1
:1013F00010BD000000480040403802400008024094
:101400002DE9F843044690F839001F4616460D466C
:10141000202850D1A5B19EB194F8380001284AD0B7
:10142000012084F838004FF00008C4F83C802120E7
:1014300084F83900FFF76EF9A6848146E68426E039
:101440000120BDE8F883E08C401EE084A0684B4694
:10145000B0F5805F4FF000024FF08001204600970A
:1014600003D000F01DFCE8B90DE000F019FCC8B98C
:1014700028882168C0F308004860206908B16D1C05
:1014800005E0AD1C03E0216815F8010B4860E08C15
:101490000028D8D14B46002240212046009700F07A
:1014A000FFFB08B10320CCE7202084F8390084F842
:1014B00038800020C5E70220C3E7FEE701684A69DB
:1014C000D24352050CD46FF480624A610421016456
:1014D000002140F8301F2022427301730120704721
:1014E00000207047F8B50446C06A1E460D461746F0
:1014F000042807D0012805D010F5803F02D0206BCA
:10150000122804D12068016841F4807101601346FB
:1015100000224FF001112046009600F01CF9A0B9FE
:101520002069B0F5804F12D00620216800EAD5105E
:1015300040F0F000086133463A460E49204600F07C
:101540003BF938B1206C042811D00320F8BD05F018
:10155000FE0000E0E8B221680861064933463A46D9
:10156000891F204600F028F90028EBD1F8BD0120A2
:10157000F8BD0000080001002DE9F84F044600689E
:1015800089460B9D01689846174641F480610160C9
:101590002068016841F48071016000954FF0011AE4
:1015A0000022514620460A9B00F0D5F8F0BB216886
:1015B00009F0FE0008610AF1010B2B46594620464E
:1015C0000A9A00F0F9F818B1206C042812D03AE019
:1015D00020684169806900902A4620460A9900F0F7
:1015E00060F950B1206C04282DD12068016841F4C5
:1015F000007101600120BDE8F88FFEB2B8F1010F63
:1016000009D02168380A08612A4620460A9900F064
:1016100048F90028E6D1206806612A4620460A9942
:1016200000F03FF90028DDD1206800E00BE0016800
:1016300041F48071016000950022514620460A9BCA
:1016400000F089F808B10320D5E7216809F0FF0010
:1016500040F0010008612B46594620460A9A00F0E6
:10166000ABF80028B0D1C6E72DE9F843044600687E
:101670000D46DDE9089701689846164641F48071E9
:1016800001604B4600224FF001112046009700F008
:1016900062F8E8B9216805F0FE0008613B464A4659
:1016A0001849204600F088F828B1206C04280FD192
:1016B0000120BDE8F88320684169806900903A46BE
:1016C0004946204600F0EDF820B1206C042813D0E4
:1016D0000320EEE7F5B2B8F1010F09D02168300A16
:1016E00008613A464946204600F0DBF80028ECD174
:1016F000206805610020DCE72068016841F4007182
:101700000160D5E70200010070B516460D4604469B
:101710001AE02046FFF7D2FE08B1012070BD681C18
:1017200012D025B1FEF7F6FF801BA8420CD954F861
:10173000400F40F0200044F81009002020602021D4
:1017400061732073032070BD20684069C043400767
:10175000DFD4002070BD2DE9F0471E4690460D46AF
:101760000446C1F30747DDF8209012E0701C10D04A
:101770002EB1FEF7CFFFA0EB0900B04209D900203F
:1017800044F8300F20216173A07320730320BDE85B
:10179000F0872068012F0AD0806925EA0000000444
:1017A000000C06D000214145E0D00020EFE7406961
:1017B000F3E70121F7E700002DE9F0479A4691464B
:1017C0000D46044600264FF02008C1F307472AE0E3
:1017D00020684069C043400512D42068016841F484
:1017E0000071016021686FF480604861042020640A
:1017F000266384F83D8084F83C600120BDE8F087D2
:10180000B9F1FF3F0FD0B9F1000F05D0FEF782FF0D
:10181000A0EB0A01494506D944F8306F84F80D80E1
:1018200026730320EAE72068012F07D0D0F81800BC
:1018300025EA00000004000CE0D0C9E74069F7E7A2
:101840002DE9F041002590460E460446202721E070
:101850004069C043C0060CD421686FF01000486195
:101860002564256384F83D7084F83C500120BDE870
:10187000F0812EB1FEF74EFFA0EB0800B04209D96F
:1018800054F8400F40F0200044F8040967702570B8
:101890000320ECE720684169C9434906D8D40020F9
:1018A000E5E770B516460D4604461AE02046FFF7F8
:1018B00005FE08B1012070BD681C12D025B1FEF7ED
:1018C00029FF801BA8420CD954F8400F40F020009B
:1018D00044F8100900202060202161732073032048
:1018E00070BD20684069C0430006DFD4002070BD91
:1018F000FEE770470907090E002806DA00F00F001E
:1019000000F1E02080F8141D704700F1E02080F81D
:101910000014704770477047FFF7F4B930B593B0C3
:1019200030216846FEF784FC14210CA8FEF780FCE9
:1019300019480025016841F080510160006800F0FD
:10194000805011901548016841F4804101600068A1
:10195000022400F4804011900120009000040190C6
:101960008001CDE9064008AA0420A82182E81300DE
:101970000B906846FFF73AFB0CA90F2081E8310075
:101980004FF4A0500F90E002109005210CA8FFF733
:1019900045FA13B030BD00004038024000700040EE
:1019A0001048016841F4700101600F48016841F07E
:1019B000010101600C4A00210832116002680B4BE2
:1019C0001A400260031D0A4A1A60026822F480224B
:1019D000026005480C3001600249580680390860F1
:1019E0007047000088ED00E000380240FFFFF6FE7F
:1019F000103000242DE9F04104460068016921F40B
:101A00004052E168114301612168C86849F20C62E3
:101A100090432369A268E5691A4363692B431A431B
:101A20000243CA602168486920F44072A0691043EB
:101A30004861E1696425B1F5004F9748974A2168EC
:101A40004FF032083FD0914201D081427CD1FFF764
:101A50008DFA00EBC00101EB001061688900B0FB5A
:101A6000F1F6FFF783FA00EBC00101EB00106168AB
:101A70008900B0FBF1F0B0FBF5F06FF018014843BE
:101A800006EB800108EB0110B0FBF5F000F0F0066A
:101A9000FFF76CFA00EBC00101EB001061688900F0
:101AA000B0FBF1F0B0FBF5F006EB0016FFF75EFAC5
:101AB00000EBC00101EB001061688900B0FBF1F799
:101AC000FFF754FAD2E0914201D081423DD1FFF7B5
:101AD0004DFA00EBC00101EB001061684900B0FB5A
:101AE000F1F0B0FBF5F00601FFF740FA00EBC001A2
:101AF00001EB001061684900B0FBF1F7FFF736FA1F
:101B000000EBC00101EB001061684900B0FBF1F08F
:101B1000B0FBF5F06FF01801484307EB800108EBCC
:101B2000C100B0FBF5F000F0F80006EB4006FFF74F
:101B30001DFA00EBC00101EB001061684900B0FB29
:101B4000F1F7FFF713FA3CE055E0FFF7FFF900EB80
:101B5000C00101EB001061684900B0FBF1F0B0FB7F
:101B6000F5F00601FFF7F2F900EBC00101EB001000
:101B700061684900B0FBF1F7FFF7E8F900EBC0013D
:101B800001EB001061684900B0FBF1F0B0FBF5F02B
:101B90006FF01801484307EB800108EBC100B0FB70
:101BA000F5F000F0F80006EB4006FFF7CFF900EB88
:101BB000C00101EB001061684900B0FBF1F7FFF7CD
:101BC000C5F900EBC00101EB001061684900B0FBF2
:101BD000F1F0B0FBF5F06FF01801484307EB80011E
:101BE00008EBC100B0FBF5F000F0070021683044BD
:101BF0008860BDE8F081FFF7A9F900EBC00101EBB7
:101C0000001061688900B0FBF1F6FFF79FF900EB67
:101C1000C00101EB001061688900B0FBF1F0B0FB7E
:101C2000F5F06FF01801484306EB800108EB011056
:101C3000B0FBF5F000F0F006FFF788F900EBC0010B
:101C400001EB001061688900B0FBF1F0B0FBF5F02A
:101C500006EB0016FFF77AF900EBC00101EB00106C
:101C600061688900B0FBF1F7FFF770F900EBC00184
:101C700001EB001061688900B0FBF1F0B0FBF5F0FA
:101C80006FF01801484307EB800108EB0110B0FB2F
:101C9000F5F000F00F00A9E700140140001001402A
:101CA0002DE9F041984617460E460446069D1DE074
:101CB000681C1BD02DB1FEF72DFDA0EB0800A8423B
:101CC00014D92068C16821F4D071C16020684169CD
:101CD00021F001014161202084F8390084F83A00A4
:101CE000002084F838000320BDE8F08120680068F7
:101CF00036EA000004D00020B842D9D00020F3E733
:101D00000120F9E7FEE700000FB4054B10B503A969
:101D1000044A029800F018F810BC5DF814FB0000AB
:101D20009D1E00081800002002E008C8121F08C10C
:101D3000002AFAD170477047002001E001C1121F4C
:101D4000002AFBD1704700002DE9FF4F89B09B4668
:101D50000446002506E025280BD05A460B999047EB
:101D6000641C6D1C20780028F5D10DB02846BDE814
:101D7000F08F0027B8460122474900E0074314F8D6
:101D8000013F203B02FA03F00842F7D120782E28C9
:101D900019D114F8010F47F004072A280ED06FF06C
:101DA0002F022078A0F1300109290CD808EB880116
:101DB00002EB410100EB0108641CF2E70A98641C85
:101DC00050F8048B0A9020780028CED0642808D0E0
:101DD000692806D075281ED05A460B9990476D1C6D
:101DE00058E00A994FF00A0901C90A91002802DA5D
:101DF00040422D2102E0390504D52B218DF8201019
:101E0000012103E0F90704D02021F7E78A4608AE54
:101E10000DE00021FAE70A994FF00A0901C90A9179
:101E2000F7E74946FEF70FFA303106F8011D0028A2
:101E3000F7D1ADEB060000F12009780701D44FF08F
:101E40000108C84502DDA8EB090000E0002080463B
:101E5000002706E008A85A46C05D0B9990476D1C04
:101E60007F1C5745F6DB04E030205A460B9990471B
:101E70006D1CB8F10001A8F10108F5DC05E016F8C9
:101E8000010B5A460B9990476D1CB9F10001A9F15D
:101E90000109F4DC641C65E70928010013B54FF65D
:101EA000FF73012269460248FFF7AAFA00981CBD99
:101EB0007000002008B5FEF72DFFFFF72FFD224828
:101EC0000024016841F080010160016801F0800197
:101ED0000091016841F002010160016801F0020116
:101EE0000091016841F0040101600068174900F0A9
:101EF00004000090164801601649C0E901144FF42F
:101F00008041C0E9034144618461C4610462FEF719
:101F100007FC0F481049543001604FF4E131C0E92B
:101F200001140C21C460C0E904418461C461FFF75D
:101F3000FFF900F03FF84FF47A7400BF00F00EF89C
:101F40002046FEF7FDFAF9E730380240005800401D
:101F50001C000020A08601000048004010B5FEF7DC
:101F600027FA014606A0FFF7CFFEFEF717FA10B1D9
:101F70000BA0FFF7C9FEBDE810400DA0FFF7C4BEDF
:101F80005B4243445044433130305D2050726F789F
:101F9000696D69747920414443203A2025640A0020
:101FA000202870726F78696D6974792920000000AB
:101FB0000A00000010B51CA0FFF7A6FE2649392034
:101FC000FEF7B4F9FEF7CAF9FEF78FF9FEF7A3F9A9
:101FD000FEF780F9FF20FEF790FAFF20FEF791FA56
:101FE000FF20FEF7A7FA0020FEF72BFA0220FEF7EB
:101FF00001FA2020FEF77DFA0020FEF740FA4FF4A8
:102000007A70FEF712FA0A20FEF745FAFEF778F921
:1020100012A0FFF779FE19A0FFF776FEBDE8104089
:1020200016A0FFF771BE00005B42434450444331A9
:1020300030305D204469676974616C2050726F783C
:10204000696D697479204465746563746F722045A5
:102050006E61626C65640A001C000020496E697440
:1020600069616C697A65642042432053656E736FC1
:102070007273205365726965730A00000A000000DC
:102080000000000000000000010203040607080928
:102090000000000001020304B82000080000002036
:1020A0001C000000281D0008D42000081C0000208F
:1020B00094040000381D000800000000000000002B
:1020C0000100000010000000000000000024F400E7
:0420D000000000000C
:040000050800018965
:00000001FF
