:020000040800F2
:10000000480500209D010008AF1800082B140008C7
:10001000AD18000839040008C11C000800000000E9
:10002000000000000000000000000000D3180008DD
:100030003B04000800000000D1180008D518000893
:10004000B7010008B7010008B7010008B7010008B0
:10005000B7010008B7010008B7010008B7010008A0
:10006000B7010008B7010008B7010008B701000890
:10007000B7010008B7010008B7010008B701000880
:10008000B7010008B7010008B7010008B701000870
:10009000B7010008B7010008B7010008B701000860
:1000A000B7010008B7010008B7010008B701000850
:1000B000B7010008B7010008B7010008B701000840
:1000C000B7010008B7010008B7010008B701000830
:1000D000B7010008B7010008B7010008B701000820
:1000E000B7010008B7010008B7010008B701000810
:1000F000B7010008B7010008B7010008B701000800
:10010000B7010008B7010008B7010008B7010008EF
:10011000B7010008B7010008B7010008B7010008DF
:10012000B7010008B7010008B7010008B7010008CF
:10013000B7010008B7010008B7010008B7010008BF
:10014000B7010008B7010008B7010008B7010008AF
:10015000B7010008B7010008B7010008B70100089F
:10016000B7010008B7010008B7010008B70100088F
:10017000B7010008B7010008B7010008000000003F
:10018000B7010008B7010008DFF80CD000F090F8C4
:1001900000480047711E00084805002006488047B7
:1001A00006480047FEE7FEE7FEE7FEE7FEE7FEE75C
:1001B000FEE7FEE7FEE7FEE75D190008890100089B
:1001C0002DE9F05F0546002092469B46884606468C
:1001D000814640241BE0284641464746224600F01F
:1001E00057F853465A46C01A914110D31146184643
:1001F000224600F03EF82D1A67EB01084F462246D2
:100200000120002100F035F817EB00094E41201EB7
:10021000A4F10104DFDC484631462A464346BDE8E6
:10022000F09FD2B201E000F8012B491EFBD27047CB
:100230000022F6E710B513460A4604461946FFF7B2
:10024000F0FF204610BD30B50B46014600202022AD
:10025000012409E021FA02F59D4205D303FA02F5D3
:10026000491B04FA02F52844151EA2F10102F1DC33
:1002700030BD202A04DB203A00FA02F1002070474A
:100280009140C2F1200320FA03F3194390407047D4
:10029000202A04DB203A21FA02F00021704721FADB
:1002A00002F3D040C2F12002914008431946704742
:1002B000064C074D06E0E06840F0010394E80700B3
:1002C00098471034AC42F6D3FFF762FF24200008B1
:1002D000442000081FB508A00A22006803900421EA
:1002E00003A88DE8070005480123FF2201788068F4
:1002F00000F0B2FB1FBD000011E5728A0000002073
:10030000F42000F015B80000014840887047000054
:100310000000002001488088704700000000002095
:100320004200024802708160704700000000002017
:1003300001B582B00A2000900348012302AA017887
:10034000806800F0EFF90EBD000000201FB50A2301
:10035000012203A98DE80E001346024604480178E5
:10036000806800F07BFA9DF80C0004B010BD00001E
:100370000000002010B586B00A22082103A88DE8ED
:100380000700094C012302222178A06800F066FAD8
:10039000BDF80C0040BAA080BDF80E0040BA6080E5
:1003A0009DF8110006B010BD0000002010B50446F5
:1003B0000120FFF7CBFF04F0070100F08F0040EAB7
:1003C0000111BDE81040012000F024B800B585B04F
:1003D000C0F303238DF80C3000F00F008DF80D00F2
:1003E000C1F303208DF80E0001F00F008DF80F000F
:1003F0008DF810200A22052103A88DE80700044883
:10040000012310220178806800F026FB05B000BDB2
:100410000000002003B583B00A23012204A98DE85F
:100420000E001346024603480178806800F014FB72
:1004300005B000BD00000020FEE7704770B504461F
:1004400000F0E6F80546601C02D004480078044439
:1004500000F0DEF8401BA042FAD370BD0C00002073
:100460002DE9F84FDFF87CB100224FF001084FF082
:10047000030A4FF00F090BF1040E00BF0B6808FAD6
:1004800002F42340A3426ED14D68022D01D0122DFB
:100490000ED1D50800EB850CDCF820505607F70E7E
:1004A00009FA07F6B5430E69BE402E43CCF820602A
:1004B000066855000F790AFA05FC07F0030726EADB
:1004C0000C06AF40374307604E68012E05D0022E60
:1004D00003D0112E01D0122E0ED18668CF6826EAE5
:1004E0000C06AF40374387604668A6430C79C4F3D7
:1004F0000014944034434460C6688C6826EA0C06B5
:10050000AC403443C4604C68E40065D5364C256883
:1005100045F480452560246822F0030504F48044F6
:100520000094324C2E19D6F8084895072F0F09FA77
:1005300007F5AC432E4DA84201D1002524E02D4DF6
:10054000A84201D101251FE02B4DA84201D102256F
:100550001AE02A4DA84201D1032515E0284DA842F2
:1005600002D1042510E037E0264DA84201D105252F
:100570000AE0254DA84201D1062505E0234DA842F9
:1005800001D1072500E00825BD402543C6F80858DD
:10059000DBF800405D464E689C43F60300D51C43E3
:1005A0002C60DEF8004075464E689C43B60300D5CB
:1005B0001C432C600B4D08352C684E689C43F6029A
:1005C00000D51C432C60074D0C352C684E689C43AD
:1005D000B60200D51C432C60521C102AFFF44EAF0B
:1005E000BDE8F88F003C0140443802400030014033
:1005F000000002400004024000080240000C0240DB
:10060000001002400014024000180240001C02408A
:1006100001488068704700000C00002070B504009D
:1006200004D094F83D00002510B106E0012070BD13
:1006300084F83C50204600F0ADFA242084F83D00B8
:100640002068016821F00101016000F01BFC3349C2
:100650002268B0FBF1F15160314A6368934206D9D8
:100660004FF4967359434FF47A73B1FBF3F1236857
:10067000491C1962616891420BD84900B0FBF1F244
:10068000C2F30B02042A01D2042019E0B0FBF1F0FE
:1006900016E0A3689BB301EBC10202EB0112B0FBB1
:1006A000F2F242F48042120530D04BB301EBC102AA
:1006B00002EB0111B0FBF1F040F4804040F4004047
:1006C0002168C861D4E90701084321680860D4E9BA
:1006D0000310084321688860D4E9050108432168B4
:1006E000C8602068016841F0010101602564202094
:1006F00084F83D00256384F83E50002070BD00E082
:1007000006E001EB4102B0FBF2F2CCE70120D7E7B3
:1007100001EB4101B0FBF1F0D0E7000040420F00D7
:10072000A08601002DE9F84F1F4690468A460446F0
:10073000DDF82890FFF76CFF064694F83D0020286E
:100740007ED11923012243492046009600F0BBFFC9
:1007500000287DD194F83C00012879D0012084F84C
:100760003C0020680168C90703D1016841F001011C
:1007700001602068016821F400610160212084F893
:100780003D00102084F83E0000252564C4F8248034
:1007900067853148E062608D208533464A46514680
:1007A000204600F057FE28B1206C84F83C50042805
:1007B0004CD00DE0206841698069009030E03246FD
:1007C0004946204601F025F828B1206C042838D08D
:1007D0000320BDE8F88F606A411C616221680078DF
:1007E0000861608D401E6085208D401E80B220858E
:1007F00021684A69D24352070BD450B1606A421C47
:10080000626200780861608D401E6085208D401E08
:10081000208532464946204600F02EFF0028D4D1DC
:10082000208D0028CBD154F83D0B016841F40071B4
:100830000160202004F81E09E57765770020C8E7ED
:1008400006E02068016841F4007101600120C0E702
:100850000220BEE7020010000000FFFF2DE9FF4F5D
:1008600083B09A46DDE9118793460446DDF840904F
:10087000FFF7CEFE054694F83D00202874D11923D9
:10088000012272492046009500F01DFF0028F5D195
:1008900094F83C00012867D0012084F83C002068CF
:1008A0000168C90703D1016841F0010101602068B6
:1008B000016821F400610160222084F83D0040209D
:1008C00084F83E0000262664C4F82490A4F82A8008
:1008D0005F48E062608D2085CDE9007553465A4639
:1008E0002046049900F000FE28B1206C84F83C609A
:1008F000042843D076E0208DC8B1012820D00228FA
:10090000206823D0416980690090208D03286BD82E
:1009100001282AD04F4902283B464FF0000200959B
:100920005BD08846204600F0CEFEE8BB40E0206861
:10093000416981690091016841F40071016076E0CC
:100940002068016821F480610160F0E7016821F40A
:10095000806101602068016841F4006101602068E5
:1009600041698069009062E06EE02A46394620467F
:1009700000F01EFF30B1206C202833D0012007B0DA
:10098000BDE8F08F206847E02068016841F40071FD
:10099000016020680169606A421C62620170208DFA
:1009A000401E2085608D00E01CE0401E6085E9E768
:1009B0002068016821F48061016020680169606A33
:1009C000421C62620170208D401E2085608D401E99
:1009D00060853B46002241460095204600F073FEAC
:1009E0000028D1D00320CAE72A463946204600F025
:1009F000DFFE0028BFD120680169606A421C626284
:100A00000170208D401E2085608D401E608520680D
:100A10004169C94349070AD40169606A421C62629C
:100A20000170208D401E2085608D401E6085208DC8
:100A300000287FF46AAF202084F83D0084F83E60EF
:100A400084F83C6000209AE7022098E7020010003A
:100A50000000FFFF040001002DE9FF4F83B09A461C
:100A6000DDE9118793460446DDF84090FFF7D0FD9D
:100A7000064694F83D0020287DD1192301224349E0
:100A80002046009600F01FFE00287CD194F83C0020
:100A9000012878D0012084F83C0020680168C9074B
:100AA00003D1016841F0010101602068016821F46F
:100AB00000610160212084F83D00402084F83E0060
:100AC00000252564C4F82490A4F82A803048E06208
:100AD000608D2085CDE9007653465A46204604991C
:100AE00000F07AFD80B3206C84F83C50042848D094
:100AF00008E032463946204600F08BFE30B1206CCB
:100B0000042839D0032007B0BDE8F08F606A411C8B
:100B10006162216800780861208D401E80B22085C6
:100B2000618D491E618521684A69D24352070BD401
:100B300068B1606A421C626200780861208D401EC4
:100B40002085608D401E6085208D0028D1D13246E1
:100B50003946204600F090FD0028D0D154F83D0BD6
:100B6000016841F400710160202004F81E09E57756
:100B700065770020C7E706E02068016841F400714E
:100B800001600120BFE70220BDE700000200100065
:100B90000000FFFFF0B587B0044614216846FFF758
:100BA00047FB2768224CDFF884C000262049122228
:100BB000032304251F481034674517D10F6847F0F9
:100BC00002070F60096801F002010591C0218DE85C
:100BD0004600CDE903356946FFF742FC206840F442
:100BE00000102060206800F400101CE0124EB74294
:100BF0001AD10E6846F002060E60096802AE01F0D6
:100C0000020105914FF44061CDE90012012186E80F
:100C10002A006946FFF724FC206840F48000206029
:100C2000206800F48000059007B0F0BD005400403B
:100C300030380240000402400058004002488168F9
:100C400002781144816070470C0000200B4810B5F9
:100C5000016841F400710160016841F48061016044
:100C6000016841F480710160032000F061F8002008
:100C700000F006F800F024F8002010BD003C02400F
:100C800070B50D4D04464FF47A712878B1FBF0F041
:100C90000A490968B1FBF0F000F0D2FA48B9102C0B
:100CA00007D200222146501E00F022F800206C607E
:100CB00070BD012070BD00000C0000201800002055
:100CC0000A4808B5016841F480410160006800F4F9
:100CD000804000900548001F016841F0805101608C
:100CE000006800F08050009008BD000044380240C9
:100CF000F0B40E4B1B680C46C3F30223C3F1070587
:100D0000042D00D90425191D072901D2002300E074
:100D1000DB1E012606FA05F1491E214099409E403E
:100D2000761E16403143F0BC00F0C2BD0CED00E071
:100D3000064900F0070208684FF6FF03184040EA32
:100D40000220034A10430860704700000CED00E0E9
:100D50000000FA052DE9F0470E46050065D0DFF8E2
:100D60001481D8F80000F7B200F00F00B04207D2AB
:100D700088F80070D8F8000000F00F00B04254D19D
:100D800028683D4C810712D5400703D5206840F400
:100D9000E05020602878000703D5206840F46040C8
:100DA00020602068A96820F0F000084320602878BF
:100DB000C0072DD0304968680839012812D00228B0
:100DC00013D0032811D00968890700292DDA21687A
:100DD00021F0030101432160FFF71AFC814641F233
:100DE000883A0EE009688903EFE709688901ECE7B2
:100DF000FFF70EFCA0EB0901514502D90320BDE825
:100E0000F0872068696800F00C00B0EB810FEFD12B
:100E1000D8F80010404601F00F01B14207D9077021
:100E2000006800F00F00B04201D00120E7E7287809
:100E3000400705D52068E96820F4E05008432060A9
:100E40002878000706D52068296920F4604040EA28
:100E5000C100206000F036F82168084AC1F3031190
:100E6000515CC840064908600020FFF709FF0020D8
:100E7000C5E70000003C0240083802400C20000892
:100E8000180000200448054900680968044AC1F3B5
:100E90008221515CC8407047180000200838024089
:100EA0001C2000080448054900680968044AC1F389
:100EB0004231515CC8407047180000200838024099
:100EC0001C200008154810B5006810F00C021448EA
:100ED00013D04110042A0FD0082A0ED10F4C241F22
:100EE0002268236802F03F025B0207D52068C0F346
:100EF0008810A0FB010106E0084610BD2168C1F37F
:100F00008811A1FB00010023FFF75AF92168C1F302
:100F10000141491C4900B0FBF1F010BD0838024006
:100F20000024F4002DE9F84F050076D02878DFF88A
:100F3000F8B2BE4CC00749D0DBF800105846C1F3E8
:100F40008101012908D00068C0F3810002280AD17C
:100F5000201D0068400206D52068800336D56868E9
:100F60000028E2D032E06868B0F5803F10D0B0F5DC
:100F7000A02F206810D020F480302060206820F45A
:100F8000802020606868A0B1FFF742FB06460CE0B5
:100F9000206840F48030F4E740F480202060F7E7D8
:100FA000FFF736FB801B642873D820688003F7D5D1
:100FB0000CE0FFF72DFB064605E000BFFFF728FB1E
:100FC000801B6428F0D820688003F7D42878DFF8E5
:100FD000608280074FF000093ED5DBF800105846CC
:100FE00011F00C0F09D00068C0F3810002280BD16A
:100FF0008D48001F0068400206D42068800715D580
:10100000E868012809D111E0E868B8B10120C8F802
:101010000000FFF7FDFA064605E002E1FFF7F8FAE7
:10102000801B0228C0D820688007F7D5206829696E
:1010300020F0F80040EAC10020600DE0C8F8009000
:10104000FFF7E6FA064604E0FFF7E2FA801B022803
:101050001FD820688007F7D42878000722D5724E61
:10106000744869696C3671B101210160FFF7D0FAEB
:10107000074604E0FFF7CCFAC01B022809D8306805
:101080008007F7D50EE0C0F80090FFF7C1FA0746D9
:1010900005E083E0FFF7BCFAC01B02287ED8306869
:1010A0008007F7D42878400768D5DFF87CA10027AF
:1010B0000AF1380ADAF80000C0000BD4DAF80010A0
:1010C00041F08051CAF80010DAF80000012700F062
:1010D00080500090584E3068C00510D4306840F4FD
:1010E00080703060FFF794FA009005E0FFF790FA07
:1010F0000099401A022851D83068C005F6D54A4EEA
:10110000A868683601280FD00528306810D020F074
:1011100001003060306820F004003060A868B8B189
:10112000FFF776FA00900FE0306840F00100F4E736
:1011300040F004003060F7E7FFF76AFA0099411ABF
:1011400041F28830814264D830688007F4D50EE0DF
:10115000FFF75EFA009007E0FFF75AFA0099411A8C
:1011600041F28830814254D830688007F4D42FB1DE
:10117000DAF8001021F08051CAF80010A869C0B355
:10118000DBF80010C1F3810102294AD00228484649
:1011900007D0C8F86000FFF73BFA00E039E00546E9
:1011A0003AE04746C8F86000FFF732FA064604E026
:1011B000FFF72EFA801B02282BD820688001F7D475
:1011C000D5E907010843A96A1C4A490802EB014115
:1011D0006A6A41EA8211084395F82C1040EA0161DD
:1011E0001148001F016001203866FFF711FA05461B
:1011F00005E014E0FFF70CFA401B022809D820682C
:101200008001F7D50BE000BFFFF702FA401B022870
:1012100002D90320BDE8F88F20688001F4D40020B3
:10122000F8E70120F6E700000838024000380240E5
:1012300000004742800E4742007000400000FFFF60
:1012400010B5401EB0F1807F01D3012010BD4FF0DA
:10125000E02460610F21601700F02AFB0020A061EC
:1012600007202061002010BD70B5040004D094F860
:101270003900002510B106E0012070BD84F8385017
:10128000204600F023F8242084F839002068C16843
:1012900021F40051C160204600F08AFB20680169FA
:1012A00021F4904101612068416921F02A014161E6
:1012B0002068C16841F40051C160E563202084F8D2
:1012C000390084F83A00002070BD000070B586B087
:1012D000044614216846FEF7ABFF204E21682048E3
:1012E0000222012303240725B14217D11C491431DE
:1012F0000E6846F010060E60096801F010010591B5
:10130000016841F0010101600068694600F00100D8
:10131000059060028DE83D0012481AE0124EB1427D
:1013200019D10F4910310E6846F480260E60096805
:1013300001F480210591016841F004010160006819
:10134000694600F0040005904FF440608DE83D00D0
:101350000648FFF785F806B070BD00000010014098
:1013600030380240000002400048004000080240BF
:101370002DE9F843044690F839001F4616460D46FD
:10138000202850D1A5B19EB194F8380001284AD048
:10139000012084F838004FF00008C4F83C80212078
:1013A00084F83900FFF734F9A6848146E68426E004
:1013B0000120BDE8F883E08C401EE084A0684B4625
:1013C000B0F5805F4FF000024FF08001204600979B
:1013D00003D000F043FCE8B90DE000F03FFCC8B9D1
:1013E00028882168C0F308004860206908B16D1C96
:1013F00005E0AD1C03E0216815F8010B4860E08CA6
:101400000028D8D14B46002240212046009700F00A
:1014100025FC08B10320CCE7202084F8390084F8AB
:1014200038800020C5E70220C3E7FEE701684A696B
:10143000D24352050CD46FF480624A6104210164E6
:10144000002140F8301F20224273017301207047B1
:1014500000207047F8B50446C06A1E460D46174680
:10146000042807D0012805D010F5803F02D0206B5A
:10147000122804D12068016841F48071016013468C
:1014800000224FF001112046009600F01CF9A0B98F
:101490002069B0F5804F12D00620216800EAD510EF
:1014A00040F0F000086133463A460E49204600F00D
:1014B0003BF938B1206C042811D00320F8BD05F0A9
:1014C000FE0000E0E8B221680861064933463A466A
:1014D000891F204600F028F90028EBD1F8BD012033
:1014E000F8BD0000080001002DE9F84F044600682F
:1014F00089460B9D01689846174641F4806101605A
:101500002068016841F48071016000954FF0011A74
:101510000022514620460A9B00F0D5F8F0BB216816
:1015200009F0FE0008610AF1010B2B4659462046DE
:101530000A9A00F0F9F818B1206C042812D03AE0A9
:1015400020684169806900902A4620460A9900F087
:1015500060F950B1206C04282DD12068016841F455
:10156000007101600120BDE8F88FFEB2B8F1010FF3
:1015700009D02168380A08612A4620460A9900F0F5
:1015800048F90028E6D1206806612A4620460A99D3
:1015900000F03FF90028DDD1206800E00BE0016891
:1015A00041F48071016000950022514620460A9B5B
:1015B00000F089F808B10320D5E7216809F0FF00A1
:1015C00040F0010008612B46594620460A9A00F077
:1015D000ABF80028B0D1C6E72DE9F843044600680F
:1015E0000D46DDE9089701689846164641F480717A
:1015F00001604B4600224FF001112046009700F099
:1016000062F8E8B9216805F0FE0008613B464A46E9
:101610001849204600F088F828B1206C04280FD122
:101620000120BDE8F88320684169806900903A464E
:101630004946204600F0EDF820B1206C042813D074
:101640000320EEE7F5B2B8F1010F09D02168300AA6
:1016500008613A464946204600F0DBF80028ECD104
:10166000206805610020DCE72068016841F4007112
:101670000160D5E70200010070B516460D4604462C
:101680001AE02046FFF7D2FE08B1012070BD681CA9
:1016900012D025B1FEF7BCFF801BA8420CD954F82C
:1016A000400F40F0200044F8100900202060202165
:1016B00061732073032070BD20684069C0434007F8
:1016C000DFD4002070BD2DE9F0471E4690460D4640
:1016D0000446C1F30747DDF8209012E0701C10D0DB
:1016E0002EB1FEF795FFA0EB0900B04209D900200A
:1016F00044F8300F20216173A07320730320BDE8EC
:10170000F0872068012F0AD0806925EA00000004D4
:10171000000C06D000214145E0D00020EFE74069F1
:10172000F3E70121F7E700002DE9F0479A469146DB
:101730000D46044600264FF02008C1F307472AE073
:1017400020684069C043400512D42068016841F414
:101750000071016021686FF480604861042020649A
:10176000266384F83D8084F83C600120BDE8F08762
:10177000B9F1FF3F0FD0B9F1000F05D0FEF748FFD8
:10178000A0EB0A01494506D944F8306F84F80D8072
:1017900026730320EAE72068012F07D0D0F818004D
:1017A00025EA00000004000CE0D0C9E74069F7E733
:1017B0002DE9F041002590460E460446202721E001
:1017C0004069C043C0060CD421686FF01000486126
:1017D0002564256384F83D7084F83C500120BDE801
:1017E000F0812EB1FEF714FFA0EB0800B04209D93A
:1017F00054F8400F40F0200044F804096770257049
:101800000320ECE720684169C9434906D8D4002089
:10181000E5E770B516460D4604461AE02046FFF788
:1018200005FE08B1012070BD681C12D025B1FEF77D
:10183000EFFE801BA8420CD954F8400F40F0200066
:1018400044F81009002020602021617320730320D8
:1018500070BD20684069C0430006DFD4002070BD21
:10186000114808B5016841F080010160016801F08C
:1018700080010091016841F002010160016801F0FE
:1018800002010091016841F001010160016801F06D
:1018900001010091016841F004010160006800F05D
:1018A0000400009008BD000030380240FEE7704799
:1018B0000907090E002806DA00F00F0000F1E02009
:1018C00080F8141D704700F1E02080F80014704784
:1018D00070477047FFF7B2B930B593B03021684612
:1018E000FEF7A6FC14210CA8FEF7A2FC194800255F
:1018F000016841F080510160006800F08050119053
:101900001548016841F4804101600068022400F438
:101910008040119001200090000401908001CDE9E9
:10192000064008AA0420A82182E813000B9068460C
:10193000FFF7F8FA0CA90F2081E831004FF4A0500E
:101940000F90E002109005210CA8FFF703FA13B0E6
:1019500030BD00004038024000700040104801686F
:1019600041F4700101600F48016841F0010101601C
:101970000C4A00210832116002680B4B1A400260C9
:10198000031D0A4A1A60026822F480220260054898
:101990000C30016002495806803908607047000029
:1019A00088ED00E000380240FFFFF6FE1030002412
:1019B0002DE9F04104460068016921F44052E168D4
:1019C000114301612168C86849F20C6290432369A0
:1019D000A268E5691A4363692B431A430243CA604C
:1019E0002168486920F44072A06910434861E169A8
:1019F0006425B1F5004F9748974A21684FF03208A7
:101A00003FD0914201D081427CD1FFF74BFA00EBED
:101A1000C00101EB001061688900B0FBF1F6FFF72F
:101A200041FA00EBC00101EB001061688900B0FBD6
:101A3000F1F0B0FBF5F06FF01801484306EB8001C0
:101A400008EB0110B0FBF5F000F0F006FFF72AFA02
:101A500000EBC00101EB001061688900B0FBF1F000
:101A6000B0FBF5F006EB0016FFF71CFA00EBC00127
:101A700001EB001061688900B0FBF1F7FFF712FA83
:101A8000D2E0914201D081423DD1FFF70BFA00EB49
:101A9000C00101EB001061684900B0FBF1F0B0FB40
:101AA000F5F00601FFF7FEF900EBC00101EB0010B5
:101AB00061684900B0FBF1F7FFF7F4F900EBC001F2
:101AC00001EB001061684900B0FBF1F0B0FBF5F0EC
:101AD0006FF01801484307EB800108EBC100B0FB31
:101AE000F5F000F0F80006EB4006FFF7DBF900EB3D
:101AF000C00101EB001061684900B0FBF1F7FFF78E
:101B0000D1F93CE055E0FFF7BDF900EBC00101EB76
:101B1000001061684900B0FBF1F0B0FBF5F0060180
:101B2000FFF7B0F900EBC00101EB0010616849005C
:101B3000B0FBF1F7FFF7A6F900EBC00101EB0010D5
:101B400061684900B0FBF1F0B0FBF5F06FF01801EF
:101B5000484307EB800108EBC100B0FBF5F000F053
:101B6000F80006EB4006FFF78DF900EBC00101EB32
:101B7000001061684900B0FBF1F7FFF783F900EB53
:101B8000C00101EB001061684900B0FBF1F0B0FB4F
:101B9000F5F06FF01801484307EB800108EBC10036
:101BA000B0FBF5F000F00700216830448860BDE824
:101BB000F081FFF767F900EBC00101EB00106168ED
:101BC0008900B0FBF1F6FFF75DF900EBC00101EB16
:101BD000001061688900B0FBF1F0B0FBF5F06FF028
:101BE0001801484306EB800108EB0110B0FBF5F04B
:101BF00000F0F006FFF746F900EBC00101EB001022
:101C000061688900B0FBF1F0B0FBF5F006EB00165F
:101C1000FFF738F900EBC00101EB001061688900A3
:101C2000B0FBF1F7FFF72EF900EBC00101EB00105C
:101C300061688900B0FBF1F0B0FBF5F06FF01801BE
:101C4000484307EB800108EB0110B0FBF5F000F012
:101C50000F00A9E700140140001001402DE9F041F8
:101C6000984617460E460446069D1DE0681C1BD08C
:101C70002DB1FEF7CDFCA0EB0800A84214D92068D6
:101C8000C16821F4D071C1602068416921F001016F
:101C90004161202084F8390084F83A00002084F85B
:101CA00038000320BDE8F0812068006836EA0000B3
:101CB00004D00020B842D9D00020F3E70120F9E792
:101CC000FEE700000FB4054B10B503A9044A0298C3
:101CD00000F018F810BC5DF814FB0000591E000855
:101CE0001C00002002E008C8121F08C1002AFAD117
:101CF00070477047002001E001C1121F002AFBD18C
:101D0000704700002DE9FF4F89B09B46044600252F
:101D100006E025280BD05A460B999047641C6D1C91
:101D200020780028F5D10DB02846BDE8F08F0027B7
:101D3000B8460122474900E0074314F8013F203B21
:101D400002FA03F00842F7D120782E2819D114F8AE
:101D5000010F47F004072A280ED06FF02F022078D9
:101D6000A0F1300109290CD808EB880102EB4101F0
:101D700000EB0108641CF2E70A98641C50F8048B1D
:101D80000A9020780028CED0642808D0692806D090
:101D900075281ED05A460B9990476D1C58E00A9939
:101DA0004FF00A0901C90A91002802DA40422D21A8
:101DB00002E0390504D52B218DF82010012103E024
:101DC000F90704D02021F7E78A4608AE0DE000218C
:101DD000FAE70A994FF00A0901C90A91F7E749465B
:101DE000FEF731FA303106F8011D0028F7D1ADEBCE
:101DF000060000F12009780701D44FF00108C8451A
:101E000002DDA8EB090000E000208046002706E084
:101E100008A85A46C05D0B9990476D1C7F1C57451A
:101E2000F6DB04E030205A460B9990476D1CB8F160
:101E30000001A8F10108F5DC05E016F8010B5A468F
:101E40000B9990476D1CB9F10001A9F10109F4DC6F
:101E5000641C65E70928010013B54FF6FF730122E2
:101E600069460248FFF784FA00981CBDC8000020AC
:101E7000FEF7ECFEFFF730FDFFF7F2FC23482249A6
:101E8000234D00240160C0E901544FF48048C0E9AB
:101E9000034844618461C4610462FEF7BFFB1B48D0
:101EA0001C4994304FF4E1360160C0E901640C270D
:101EB000C460C0E904478461C461FFF7D5F91348E1
:101EC000154954380160C0E90154C0E90348446130
:101ED0008461C4610462FEF7A1FB0C480F495430D1
:101EE0000160C0E90164C460C0E904478461C46161
:101EF000FFF7BAF900F03CF84FF47A7400F010F8EC
:101F00002046FEF79BFAF9E70058004074000020D5
:101F1000A08601000048004000540040001001402D
:101F200010B5FEF727FAFEF7F5F90446FEF7ECF9CF
:101F300022460146BDE8104001A0FFF7C3BE0000E5
:101F40005B4243415153313138375D2054564F4342
:101F5000203A2025642070706220202020206543D4
:101F60004F32203A202025642070706D0A0D000049
:101F700010B510A0FFF7A6FE1A495A20FEF7D0F9B7
:101F8000FEF7A8F96420FEF759FAFEF7B9F93222F4
:101F900040F6C41140F2DC50FEF718FA0120FEF7BB
:101FA00005FA11A0FFF78EFEBDE8104016A0FFF75E
:101FB00089BE00005B4243415153313138375D20C7
:101FC000496E646F6F722041697220517561726948
:101FD00074792053656E736F7220456E61626C6513
:101FE000640A000020000020496E697469616C6910
:101FF0007A65642042432053656E736F7273205379
:1020000065726965730A00000A00000000000000A4
:102010000000000001020304060708090000000098
:1020200001020304442000080000002020000000FA
:10203000E41C00086420000820000020280500009F
:10204000F41C000800000000000000000000000078
:102050000100000010000000000000000024F40057
:04206000000000007C
:040000050800018965
:00000001FF
