:020000040800F2
:10000000F80400209D0100088F27000877220008CF
:100010008D27000811110008A12B00080000000026
:10002000000000000000000000000000B3270008EE
:100030001311000800000000B1270008B5270008D0
:10004000B7010008B7010008B7010008B7010008B0
:10005000B7010008B7010008B7010008B7010008A0
:10006000B7010008B7010008B7010008B701000890
:10007000B7010008B7010008B7010008B701000880
:10008000B7010008B7010008B7010008B701000870
:10009000B7010008B7010008B7010008B701000860
:1000A000B7010008B7010008B7010008B701000850
:1000B000B7010008B7010008B7010008B701000840
:1000C000B7010008B7010008B7010008B701000830
:1000D000B7010008B7010008B7010008B701000820
:1000E000B7010008B7010008B7010008B701000810
:1000F000B7010008B7010008B7010008B701000800
:10010000B7010008B7010008B7010008B7010008EF
:10011000B7010008B7010008B7010008B7010008DF
:10012000B7010008B7010008B7010008B7010008CF
:10013000B7010008B7010008B7010008B7010008BF
:10014000B7010008B7010008B7010008B7010008AF
:10015000B7010008B7010008B7010008B70100089F
:10016000B7010008B7010008B7010008B70100088F
:10017000B7010008B7010008B7010008000000003F
:10018000B7010008B7010008DFF80CD000F0CAFA88
:100190000048004791340008F804002006488047D2
:1001A00006480047FEE7FEE7FEE7FEE7FEE7FEE75C
:1001B000FEE7FEE7FEE7FEE73D28000889010008AC
:1001C0002DE9F05F0546002092469B46884606468C
:1001D000814640241BE0284641464746224600F01F
:1001E000F2F953465A46C01A914110D311461846A7
:1001F000224600F0D9F92D1A67EB01084F46224636
:100200000120002100F0D0F917EB00094E41201E1B
:10021000A4F10104DFDC484631462A464346BDE8E6
:10022000F09FD2B201E000F8012B491EFBD27047CB
:100230000022F6E710B513460A4604461946FFF7B2
:10024000F0FF204610BD2DE9FE4F804681EA0300F5
:10025000C00F0C46009021F0004123F00045B8EBA0
:100260000200A94105D24046214690461C460B4655
:10027000024623F00040104347D0270DC7F30A0081
:10028000C3F30A510290401A019040286BDAC3F37D
:10029000130040F4801B0098924620B10023D2EB5B
:1002A000030A63EB0B0B01985946C0F1400250461C
:1002B00000F07AF906460D4650465946019A00F07C
:1002C00092F910EB08006141002487EA115284EA98
:1002D000E7731A4340D0009A62B3019A012A4FEAA9
:1002E000075215DC001B61EB02014FF0004202EAED
:1002F0000752CDE90042001C41F5801132462B46E1
:1003000000F092F903B0BDE8F08F40462146F9E7CE
:10031000001B61EB0201001C41F5801300185B41DA
:100320002018A2F5001747EB030140EAD570B61973
:100330006D4111E06D084FEA360645EAC0754FEA97
:100340000752001B61EB0201001C41F580114908B6
:100350004FEA30000019514132462B4603B0BDE848
:10036000F04F00F052B90098012240000023D0EB7A
:10037000020263EBE073009821464FEAE074B8EBA9
:10038000000061EB0401E9E783F000435BE781F0E3
:10039000004158E72DE9FE4F81EA030404F00044D0
:1003A00021F0004100944FF0000B23F0004350EA8D
:1003B00001045ED052EA03045BD0C3F30A54C1F3D4
:1003C0000A552C44A4F2F3340194A0FB0254C1F367
:1003D000130141F48011C3F3130343F4801301FBB1
:1003E000024400FB034E840A970A44EA815447EA18
:1003F0008357A4FB076802958D0A05FB07854FEA22
:10040000932C04FB0C542705029D4FEA065847EA3B
:100410001637B5EB08056EEB070C870E920E47EA10
:10042000811742EA8312A7FB0201B6EB0B0164EBD2
:1004300000042B0D43EA0C335E1844EB1C50DA46E3
:100440005146E7FB0201C5F313044FEA0B3343EABD
:1004500014534FEA0432019C43EA0603A4F10C044E
:100460000294009CCDE900B400F0DEF803B0BDE8D2
:10047000F08F00200146F9E72DE9F04D81EA0304F1
:1004800004F0004B21F0004514464FF0000A23F021
:10049000004150EA050220D054EA01021DD0C5F304
:1004A0000A570246C5F31303C1F31300C1F30A56FA
:1004B00040F4801543F48013A7EB0608101BD646C2
:1004C00008F2FD3873EB050002D308F1010801E0E2
:1004D00092185B41B8F1000F03DA00200146BDE835
:1004E000F08D00204FF48011064684460EE0171B65
:1004F00073EB050705D3121B63EB050306434CEAB8
:10050000010C49084FEA300092185B4150EA01079C
:10051000EDD152EA030012D082EA040083EA050119
:10052000084305D0101BAB4106D20122002306E090
:1005300000224FF0004302E06FF0010253101AEB6B
:1005400006004CEB085110EB0A0041EB0B01BDE833
:10055000F04D00F05AB800F0004230F000400AD0F0
:10056000C10D01F56071C0F3160042EA0151C208E5
:1005700040071143704700200146704730B50B46D5
:10058000014600202022012409E021FA02F59D42C3
:1005900005D303FA02F5491B04FA02F52844151E97
:1005A000A2F10102F1DC30BD202A04DB203A00FA7E
:1005B00002F1002070479140C2F1200320FA03F3BA
:1005C000194390407047202A04DB203A21FA02F0B8
:1005D0000021704721FA02F3D040C2F1200291407D
:1005E000084319467047202A06DBCB17203A41FA08
:1005F00002F043EAE07306E041FA02F3D040C2F1B0
:100600002002914008431946704710B5141E73F13B
:10061000000408DA401C41F1000192185B411A43C2
:1006200001D120F0010010BD2DE9F04D92469B460E
:1006300011B1B1FA81F202E0B0FA80F220329046B4
:10064000FFF7B2FF04460F4640EA0A0041EA0B01F9
:1006500053465A46084313D0114653EA010019D0B5
:10066000C8F140025046FFF7AEFF05460E46504621
:1006700059464246FFF798FF084305D0012004E0A1
:1006800020463946BDE8F08D0020054346EAE07675
:100690002C4337430A986305E40AA0EB08000022C4
:1006A000FD0A44EA47540A3002D500200146E9E732
:1006B000010510196941DDE9084500196941BDE8E6
:1006C000F04DA2E7C1F30A52C1F3130140F2FF3328
:1006D00041F480119A4202DA00200146704740F24C
:1006E00033439A42A2F2334202DC5242FFF76BBF1D
:1006F000FFF75ABF30B5041E71F1000404DB4FF060
:100700000044404264EB0101141E73F1000405DB58
:100710001C464FF00043524263EB0403994208BF6A
:10072000904230BD064C074D06E0E06840F0010302
:1007300094E8070098471034AC42F6D3FFF728FD41
:10074000A43A0008C43A0008884201DA0846704713
:100750009042FCDD1046704738B50C4605466A46A7
:100760000121302000F05EF89DF80000002C02D03E
:10077000E84000F0010038BD42000A489FED0A0B36
:10078000027041600121417000218170084880EDB4
:10079000000B9FED080B80ED020B9FED080B80ED29
:1007A000040B7047000000209F27F96C78D56E3F3E
:1007B000E00000200E7F8FF27ACD6E3F200FD83000
:1007C0009E9C6C3F10B500212D2000F0EDF810210B
:1007D0002D2000F0E9F80821BDE810402D2000F0A0
:1007E000E3B8000070B514460D4606460C4A0621D3
:1007F000322000F017F80A4B187893F9011040EAFC
:1008000001203060987893F9031040EA01202860B5
:10081000187993F9051040EA0120206070BD0000AE
:10082000080000200EB50A23009289B2CDE9011319
:100830000246034801230178406800F06FFF0EBDB7
:100840000000002010B5FF220021FFF77DFFC1B29C
:10085000BDE81040242000F0A7B80246062127205A
:1008600000F053B802460521272000F04EB802469A
:100870000421272000F049B8C1B2222000F094B82A
:1008800010B5FF220021FFF75FFFC1B2BDE81040A5
:10089000232000F089B810B5FF220021FFF754FF94
:1008A000C1B2BDE81040292000F07EB810B5FF228B
:1008B0000021FFF749FFC1B2BDE81040282000F039
:1008C00073B810B5FF220021FFF73EFFC1B2BDE8AB
:1008D0001040252000F068B802460221272000F0D1
:1008E00014B802460121272000F00FB8024600216B
:1008F000272000F00AB80A4601462E2000F005B86D
:100900000A4601462F20AFF30080F8B514460D4685
:1009100006466A460121FFF785FF01239DF8000086
:10092000AB401CB103438DF8003002E098438DF8D2
:1009300000009DF80010304600F036F8F8BD024681
:1009400002212A20FFF7E1BF024601212A20FFF7FA
:10095000DCBF024600212A20FFF7D7BF10B5FF22D7
:100960000021FFF7F1FEC1B2BDE81040212000F0E8
:100970001BB810B5FF220021FFF7E6FEC1B2BDE8AB
:1009800010401D2000F010B810B5FF220021FFF725
:10099000DBFEC1B2BDE81040262000F005B8C8401B
:1009A00000F001007047000003B583B00A23012264
:1009B00004A98DE80E0013460246034801784068FA
:1009C00000F0AAFF05B000BD000000204200024870
:1009D0000270416070470000100000201FB50A231C
:1009E000022203A98DE80E00024605480123017882
:1009F000406800F093FEBDF80C0004B040BA10BD92
:100A00001000002010B500202DED028B9FED0C8A08
:100A1000FFF7E4FF020BC0F30B010020B0EE000A69
:100A200003E000BF28EE008A401C9042FADB00EE93
:100A3000101AB8EE400A28EE000ABDEC028B10BD79
:100A40000AD7233C70B505460120FFF7C7FF0446CF
:100A500020F00301012000F087F8002D12D0012DB5
:100A60000AD0022D0BD0032D0CD144F00301BDE8B8
:100A70007040012000F078B844F00101F7E744F03D
:100A80000201F4E770BD10B504460120FFF7A6FF90
:100A900014B140F0100101E020F01001BDE8104059
:100AA000012000F061B810B504460120FFF796FF61
:100AB00014B140F0040101E020F00401BDE8104051
:100AC000012000F051B870B505460120FFF786FF00
:100AD000044620F4C061012000F046F8002D0BD040
:100AE000012D02D044F4806101E044F40071BDE8BE
:100AF0007040012000F038B870BD10B504460120E8
:100B0000FFF76CFF14B140F0080101E020F008018C
:100B1000BDE81040012000F027B870B5054601205F
:100B2000FFF75CFF04464FF6FF7000EA0535C4F39B
:100B30000B01012000F018F844EA0501BDE87040FF
:100B4000012000F011B810B504460120FFF746FF60
:100B500014B140F4006101E020F40061BDE81040F0
:100B6000012000F001B800001FB50A0A8DF80C2022
:100B70008DF80D100A23022203A98DE80E0002460B
:100B8000034801230178406800F0C6FE1FBD000045
:100B9000100000201FB508A00A220068039004215D
:100BA00003A88DE8070005480123FF22017880682B
:100BB00000F0B2FE1FBD000011E5728A180000208F
:100BC000F42000F015B8000001484088704700008C
:100BD000180000200148808870470000180000209D
:100BE0004200024802708160704700001800002037
:100BF00001B582B00A2000900348012302AA0178BF
:100C0000806800F0EFFC0EBD180000201FB50A231D
:100C1000012203A98DE80E0013460246044801781C
:100C2000806800F07BFD9DF80C0004B010BD000052
:100C3000180000207FB50F4C0220FF258DF80C0016
:100C40000095012303AA2178A06800F0CBFC009551
:100C5000082301AA2178A06800F0D0FBBDF80400A9
:100C600040BAA080BDF8060040BA60809DF8090037
:100C700004B070BD1800002010B504460120FFF735
:100C8000C5FF04F0070100F08F0040EA0111BDE844
:100C90001040012000F024B800B585B0C0F3032354
:100CA0008DF80C3000F00F008DF80D00C1F303201B
:100CB0008DF80E0001F00F008DF80F008DF8102058
:100CC0000A22052103A88DE8070004480123102209
:100CD0000178806800F020FE05B000BD18000020FB
:100CE00003B583B00A23012204A98DE80E00134640
:100CF000024603480178806800F00EFE05B000BD92
:100D00001800002010B5002000F066F800F0F9018E
:100D1000BDE81040002000F0FFB810B5002000F042
:100D20005BF840F02001BDE81040002000F0F4B86E
:100D300010B5002000F050F840F00601BDE810406A
:100D4000002000F0E9B810B5002000F045F840F0B0
:100D50000801BDE81040002000F0DEB84200024863
:100D60000270416070470000240000201CB5E5209F
:100D70008DF804000A2000900348012301AA01789D
:100D8000406800F02FFC1CBD2400002010B500209E
:100D900000F022F840F00101002000F0BDF8BDE8AD
:100DA0001040002000F018B810B5132000F014F81F
:100DB0000446FFF7DBFFC4F3401010BD10B5182048
:100DC00000F00AF860F30704192000F005F860F35A
:100DD0000F24A0B210BD00001FB50A23012203A9F1
:100DE0008DE80E0040F0800204480123017840683D
:100DF00000F094FC9DF80C0004B010BD240000200D
:100E000010B504460F20FFF7E7FF1CB1012C06D0F8
:100E1000022C09D000F0CF0040F0100106E000F0F5
:100E2000CF0040F0200101E040F03001BDE810406B
:100E30000F2000F071B810B5C1B2040A0A2000F00A
:100E40006BF82146BDE810400B2000F065B810B5E6
:100E500004460F20FFF7C0FF54B1012C0BD0022C29
:100E60000ED040F0C001BDE810400F2000F054B893
:100E700000F03F01F7E700F03F0040F04001F2E7EB
:100E800000F03F0040F08001EDE710B5C1B2040A68
:100E9000082000F041F82146BDE81040092000F08C
:100EA0003BB8102809D2DFE800F0080A0C0E101237
:100EB0001416181A1C1E2022242600211CE01021C2
:100EC0001AE0202118E0302116E0402114E05021E2
:100ED00012E0602110E070210EE080210CE09021F2
:100EE0000AE0A02108E0B02106E0C02104E0D02102
:100EF00002E0E02100E0F0210C2000F00DB80146F6
:100F00000E2000F009B80146012000F005B80146A6
:100F1000022000F001B8000003B583B00A230122CB
:100F200004A98DE80E0040F08002044801230178F6
:100F3000406800F0F1FC05B000BD00002400002076
:100F400001460320FFF7E8BF4200024802704160FB
:100F5000704700002C00002010B5022000F01AF8A5
:100F600060F30704032000F015F860F30F24A0B22B
:100F700000EE100ADFED050AB8EE400A20EE200A66
:100F8000DFED030A20EE200A10BD000000008037CC
:100F90000000C8421FB50A23012203A98DE80E00F4
:100FA0001346024604480178406800F0B7FB9DF8FC
:100FB0000C0004B010BD00002C00002010B5002073
:100FC000FFF7E8FF60F307040120FFF7E3FF60F39A
:100FD0000F24A0B200EE100ADFED060A9FED061AFC
:100FE000B8EE400A60EE200A9FED040A10EE810A76
:100FF00010BD0000000025430000803700002042A3
:1010000010B504460F20FFF7C5FF1CB1012C04D01A
:10101000022C07D000F0CF0108E000F0DF0040F024
:10102000100103E000F0EF0040F02001BDE81040A7
:101030000F2000F05BB810B504460E20FFF7AAFFA2
:10104000082C05D2DFE804F004070C11161B20253C
:1010500000F08F011FE000F09F0040F010011AE047
:1010600000F0AF0040F0200115E000F0BF0040F0BC
:10107000300110E000F0CF0040F040010BE000F044
:10108000DF0040F0500106E000F0EF0040F06001AA
:1010900001E040F07001BDE810400E2000F026B8DD
:1010A00010B504460F20FFF775FF1CB1012C04D0CA
:1010B000022C07D000F03F0108E000F07F0040F074
:1010C000400103E000F0BF0040F08001BDE81040A7
:1010D0000F2000F00BB810B50F20FFF75BFF40F0BA
:1010E0000101BDE810400F20AFF3008003B583B0CD
:1010F0000A23012204A98DE80E0013460246034884
:101100000178406800F008FC05B000BD2C0000200C
:10111000FEE7704770B5044600F0E6F80546601C2F
:1011200002D004480078044400F0DEF8401BA042DE
:10113000FAD370BD340000202DE9F84FDFF87CB100
:1011400000224FF001084FF0030A4FF00F090BF196
:10115000040E00BF0B6808FA02F42340A3426ED1CC
:101160004D68022D01D0122D0ED1D50800EB850C53
:10117000DCF820505607F70E09FA07F6B5430E695A
:10118000BE402E43CCF82060066855000F790AFA5D
:1011900005FC07F0030726EA0C06AF40374307605B
:1011A0004E68012E05D0022E03D0112E01D0122E32
:1011B0000ED18668CF6826EA0C06AF4037438760B9
:1011C0004668A6430C79C4F3001494403443446049
:1011D000C6688C6826EA0C06AC403443C4604C6890
:1011E000E40065D5364C256845F4804525602468C3
:1011F00022F0030504F480440094324C2E19D6F8F2
:10120000084895072F0F09FA07F5AC432E4DA84261
:1012100001D1002524E02D4DA84201D101251FE078
:101220002B4DA84201D102251AE02A4DA84201D136
:10123000032515E0284DA84202D1042510E037E02F
:10124000264DA84201D105250AE0254DA84201D12D
:10125000062505E0234DA84201D1072500E0082519
:10126000BD402543C6F80858DBF800405D464E688F
:101270009C43F60300D51C432C60DEF80040754605
:101280004E689C43B60300D51C432C600B4D0835BB
:101290002C684E689C43F60200D51C432C60074D19
:1012A0000C352C684E689C43B60200D51C432C605C
:1012B000521C102AFFF44EAFBDE8F88F003C0140ED
:1012C0004438024000300140000002400004024067
:1012D00000080240000C02400010024000140240CE
:1012E00000180240001C024001488068704700005E
:1012F0003400002070B5040004D094F83D000025AF
:1013000010B106E0012070BD84F83C50204600F08A
:10131000A1FB242084F83D002068016821F0010130
:10132000016000F0F1FC33492268B0FBF1F151603B
:10133000314A6368934206D94FF4967359434FF488
:101340007A73B1FBF3F12368491C19626168914219
:101350000BD84900B0FBF1F2C2F30B02042A01D210
:10136000042019E0B0FBF1F016E0A3689BB301EB99
:10137000C10202EB0112B0FBF2F242F4804212050C
:1013800030D04BB301EBC10202EB0111B0FBF1F025
:1013900040F4804040F400402168C861D4E907016E
:1013A000084321680860D4E9031008432168886075
:1013B000D4E9050108432168C8602068016841F04C
:1013C000010101602564202084F83D00256384F834
:1013D0003E50002070BD00E006E001EB4102B0FB92
:1013E000F2F2CCE70120D7E701EB4101B0FBF1F0CD
:1013F000D0E7000040420F00A08601002DE9F84F21
:101400001F4690468A460446DDF82890FFF76CFF99
:10141000054694F83D0020286FD1192301226E491A
:101420002046009501F0E5F80028F5D194F83C003D
:10143000012862D0012084F83C0020680168C907B7
:1014400003D1016841F0010101602068016821F4C5
:1014500000610160222084F83D00102084F83E00E5
:1014600000262664C4F8248067855C48E062608DAD
:1014700020852B464A465146204600F011FF28B1F0
:10148000206C84F83C60042841D04DE0208D544FFE
:1014900068B1012814D002282068016816D041F4F0
:1014A00080610160206841698069009085E0206862
:1014B000416981690091016841F4007101607CE03B
:1014C0002068016821F480610160F0E721F4806107
:1014D00001602068016841F40061E2E7032849D80F
:1014E00001280BD0022817D04B460022394620464F
:1014F000009501F07EF8B8B92AE06AE02A4649462C
:10150000204601F0EBF828B1206C20280CD00120F7
:10151000BDE8F88F206845E04B460022394620465A
:10152000009501F066F808B10320F1E72068016832
:1015300041F40071016020680169606A421C6262C6
:101540000170208D401E2085608D401E6085E1E782
:101550002068016821F48061016020680169606A87
:10156000421C62620170208D401E2085608D401EED
:101570006085D1E72A464946204601F0AFF80028A9
:10158000C2D120680269606A411C61620270208DCC
:10159000401E2085608D401E608520684169C943DA
:1015A00049070AD40169606A421C62620170208D99
:1015B000401E2085608D401E6085208D00288DD1C5
:1015C000202084F83D0084F83E6084F83C600020D0
:1015D0009EE702209CE70000020010000000FFFFD1
:1015E000040001002DE9F84F1F4690468A46044644
:1015F000DDF82890FFF778FE064694F83D00202895
:101600007ED11923012243492046009600F0F1FFC4
:1016100000287DD194F83C00012879D0012084F87D
:101620003C0020680168C90703D1016841F001014D
:1016300001602068016821F400610160212084F8C4
:101640003D00102084F83E0000252564C4F8248065
:1016500067853148E062608D208533464A465146B1
:10166000204600F08DFE28B1206C84F83C50042800
:101670004CD00DE0206841698069009030E032462E
:101680004946204601F05BF828B1206C042838D088
:101690000320BDE8F88F606A411C61622168007810
:1016A0000861608D401E6085208D401E80B22085BF
:1016B00021684A69D24352070BD450B1606A421C78
:1016C000626200780861608D401E6085208D401E3A
:1016D000208532464946204600F064FF0028D4D1D8
:1016E000208D0028CBD154F83D0B016841F40071E6
:1016F0000160202004F81E09E57765770020C8E71F
:1017000006E02068016841F4007101600120C0E733
:101710000220BEE7020010000000FFFF2DE9FF4F8E
:1017200083B09A46DDE9118793460446DDF8409080
:10173000FFF7DAFD054694F83D00202874D11923FF
:10174000012272492046009500F053FF0028F5D190
:1017500094F83C00012867D0012084F83C00206800
:101760000168C90703D1016841F0010101602068E7
:10177000016821F400610160222084F83D004020CE
:1017800084F83E0000262664C4F82490A4F82A8039
:101790005F48E062608D2085CDE9007553465A466A
:1017A0002046049900F036FE28B1206C84F83C6095
:1017B000042843D076E0208DC8B1012820D002282B
:1017C000206823D0416980690090208D03286BD860
:1017D00001282AD04F4902283B464FF000020095CD
:1017E0005BD08846204600F004FFE8BB40E020685C
:1017F000416981690091016841F40071016076E0FE
:101800002068016821F480610160F0E7016821F43B
:10181000806101602068016841F400610160206816
:1018200041698069009062E06EE02A4639462046B0
:1018300000F054FF30B1206C202833D0012007B0D5
:10184000BDE8F08F206847E02068016841F400712E
:10185000016020680169606A421C62620170208D2B
:10186000401E2085608D00E01CE0401E6085E9E799
:101870002068016821F48061016020680169606A64
:10188000421C62620170208D401E2085608D401ECA
:1018900060853B46002241460095204600F0A9FEA7
:1018A0000028D1D00320CAE72A463946204600F056
:1018B00015FF0028BFD120680169606A421C62627E
:1018C0000170208D401E2085608D401E608520683F
:1018D0004169C94349070AD40169606A421C6262CE
:1018E0000170208D401E2085608D401E6085208DFA
:1018F00000287FF46AAF202084F83D0084F83E6021
:1019000084F83C6000209AE7022098E7020010006B
:101910000000FFFF040001002DE9FF4F83B09A464D
:10192000DDE9118793460446DDF84090FFF7DCFCC3
:10193000064694F83D0020287DD119230122434911
:101940002046009600F055FE00287CD194F83C001B
:10195000012878D0012084F83C0020680168C9077C
:1019600003D1016841F0010101602068016821F4A0
:1019700000610160212084F83D00402084F83E0091
:1019800000252564C4F82490A4F82A803048E06239
:10199000608D2085CDE9007653465A46204604994D
:1019A00000F0B0FD80B3206C84F83C50042848D08F
:1019B00008E032463946204600F0C1FE30B1206CC6
:1019C000042839D0032007B0BDE8F08F606A411CBD
:1019D0006162216800780861208D401E80B22085F8
:1019E000618D491E618521684A69D24352070BD433
:1019F00068B1606A421C626200780861208D401EF6
:101A00002085608D401E6085208D0028D1D1324612
:101A10003946204600F0C6FD0028D0D154F83D0BD1
:101A2000016841F400710160202004F81E09E57787
:101A300065770020C7E706E02068016841F400717F
:101A400001600120BFE70220BDE700000200100096
:101A50000000FFFF10B586B0044614216846FEF76B
:101A6000E7FB14492068884221D11348016841F0FE
:101A7000020101600068694600F0020005904FF421
:101A800040600090122001900120029003200390FA
:101A9000042004900948FFF74FFB07481030016805
:101AA00041F480010160006800F48000059006B0F8
:101AB00010BD0000005800403038024000040240D1
:101AC0000248816802781144816070473400002028
:101AD0000B4810B5016841F400710160016841F4E0
:101AE00080610160016841F480710160032000F0B1
:101AF00061F8002000F006F800F024F8002010BD86
:101B0000003C024070B50D4D04464FF47A712878C0
:101B1000B1FBF0F00A490968B1FBF0F000F0D2FA2D
:101B200048B9102C07D200222146501E00F022F89E
:101B300000206C6070BD012070BD000034000020EA
:101B4000400000200A4808B5016841F48041016066
:101B5000006800F4804000900548001F016841F0D3
:101B600080510160006800F08050009008BD0000C6
:101B700044380240F0B40E4B1B680C46C3F30223FA
:101B8000C3F10705042D00D90425191D072901D229
:101B9000002300E0DB1E012606FA05F1491E214064
:101BA00099409E40761E16403143F0BC00F0F0BDD7
:101BB0000CED00E0064900F0070208684FF6FF034D
:101BC000184040EA0220034A1043086070470000B2
:101BD0000CED00E00000FA052DE9F0470E46050087
:101BE00065D0DFF81481D8F80000F7B200F00F00DC
:101BF000B04207D288F80070D8F8000000F00F005B
:101C0000B04254D128683D4C810712D5400703D516
:101C1000206840F4E05020602878000703D5206851
:101C200040F4604020602068A96820F0F00008437C
:101C300020602878C0072DD030496868083901280D
:101C400012D0022813D0032811D00968890700296F
:101C50002DDA216821F0030101432160FFF744FBE5
:101C6000814641F2883A0EE009688903EFE7096886
:101C70008901ECE7FFF738FBA0EB0901514502D9D8
:101C80000320BDE8F0872068696800F00C00B0EB25
:101C9000810FEFD1D8F80010404601F00F01B1429A
:101CA00007D90770006800F00F00B04201D0012092
:101CB000E7E72878400705D52068E96820F4E05078
:101CC000084320602878000706D52068296920F499
:101CD000604040EAC100206000F036F82168084A00
:101CE000C1F30311515CC840064908600020FFF7AA
:101CF00009FF0020C5E70000003C02400838024010
:101D00008C3A000840000020044805490068096832
:101D1000044AC1F38221515CC84070474000002052
:101D2000083802409C3A00080448054900680968E0
:101D3000044AC1F34231515CC84070474000002062
:101D4000083802409C3A0008154810B5006810F0A9
:101D50000C02144813D04110042A0FD0082A0ED1C7
:101D60000F4C241F2268236802F03F025B0207D554
:101D70002068C0F38810A0FB010106E0084610BDF2
:101D80002168C1F38811A1FB00010023FEF718FAB6
:101D90002168C1F30141491C4900B0FBF1F010BDBD
:101DA000083802400024F4002DE9F84F050076D0F1
:101DB0002878DFF8F8B2BE4CC00749D0DBF8001035
:101DC0005846C1F38101012908D00068C0F38100A1
:101DD00002280AD1201D0068400206D52068800331
:101DE00036D568680028E2D032E06868B0F5803FF8
:101DF00010D0B0F5A02F206810D020F480302060E3
:101E0000206820F4802020606868A0B1FFF76CFA99
:101E100006460CE0206840F48030F4E740F480206F
:101E20002060F7E7FFF760FA801B642873D820680A
:101E30008003F7D50CE0FFF757FA064605E000BF30
:101E4000FFF752FA801B6428F0D820688003F7D48B
:101E50002878DFF8608280074FF000093ED5DBF874
:101E60000010584611F00C0F09D00068C0F3810033
:101E700002280BD18D48001F0068400206D420685C
:101E8000800715D5E868012809D111E0E868B8B1E4
:101E90000120C8F80000FFF727FA064605E002E136
:101EA000FFF722FA801B0228C0D820688007F7D5E8
:101EB0002068296920F0F80040EAC10020600DE0A8
:101EC000C8F80090FFF710FA064604E0FFF70CFA96
:101ED000801B02281FD820688007F7D428780007C5
:101EE00022D5724E744869696C3671B10121016066
:101EF000FFF7FAF9074604E0FFF7F6F9C01B0228DE
:101F000009D830688007F7D50EE0C0F80090FFF7D9
:101F1000EBF9074605E083E0FFF7E6F9C01B02286E
:101F20007ED830688007F7D42878400768D5DFF876
:101F30007CA100270AF1380ADAF80000C0000BD4AF
:101F4000DAF8001041F08051CAF80010DAF8000009
:101F5000012700F080500090584E3068C00510D422
:101F6000306840F480703060FFF7BEF9009005E003
:101F7000FFF7BAF90099401A022851D83068C00515
:101F8000F6D54A4EA868683601280FD00528306873
:101F900010D020F001003060306820F00400306084
:101FA000A868B8B1FFF7A0F900900FE0306840F0E2
:101FB0000100F4E740F004003060F7E7FFF794F920
:101FC0000099411A41F28830814264D83068800714
:101FD000F4D50EE0FFF788F9009007E0FFF784F9E9
:101FE0000099411A41F28830814254D83068800704
:101FF000F4D42FB1DAF8001021F08051CAF80010A3
:10200000A869C0B3DBF80010C1F3810102294AD0EE
:102010000228484607D0C8F86000FFF765F900E0DD
:1020200039E005463AE04746C8F86000FFF75CF93A
:10203000064604E0FFF758F9801B02282BD82068D9
:102040008001F7D4D5E907010843A96A1C4A490869
:1020500002EB01416A6A41EA8211084395F82C10AB
:1020600040EA01611148001F016001203866FFF756
:102070003BF9054605E014E0FFF736F9401B02285E
:1020800009D820688001F7D50BE000BFFFF72CF9D5
:10209000401B022802D90320BDE8F88F2068800188
:1020A000F4D40020F8E70120F6E7000008380240E9
:1020B0000038024000004742800E47420070004056
:1020C0000000FFFF10B5401EB0F1807F01D301205A
:1020D00010BD4FF0E02460610F21601700F058FB45
:1020E0000020A06107202061002010BD70B5040011
:1020F00004D094F83900002510B106E0012070BD2D
:1021000084F83850204600F023F8242084F8390061
:102110002068C16821F40051C160204600F0B8FB7E
:102120002068016921F4904101612068416921F032
:102130002A0141612068C16841F40051C160E56332
:10214000202084F8390084F83A00002070BD000097
:1021500010B586B0044614216846FEF769F81449A4
:102160002068884221D11348016841F48021016030
:10217000006800F4802005900E481038016841F096
:10218000040101600068694600F0040005904FF406
:1021900040600090022001900120029003200390F3
:1021A000072004900448FEF7C7FF06B010BD0000EA
:1021B0000048004040380240000802402DE9F84342
:1021C000044690F839001F4616460D46202850D187
:1021D000A5B19EB194F8380001284AD0012084F8B6
:1021E00038004FF00008C4F83C80212084F8390002
:1021F000FFF77AF8A6848146E68426E00120BDE850
:10220000F883E08C401EE084A0684B46B0F5805F08
:102210004FF000024FF080012046009703D000F0FD
:102220008DFCE8B90DE000F089FCC8B92888216868
:10223000C0F308004860206908B16D1C05E0AD1CC2
:1022400003E0216815F8010B4860E08C0028D8D124
:102250004B46002240212046009700F06FFC08B159
:102260000320CCE7202084F8390084F8388000204F
:10227000C5E70220C3E7FEE701684A69D243520579
:102280000CD46FF480624A6104210164002140F89B
:10229000301F2022427301730120704700207047D5
:1022A0002DE9F84F0446C06A1E4692460D46216845
:1022B0000A6842F480620A60042807D0012805D029
:1022C00010F5803F02D0206B112804D120680168EE
:1022D00041F4807101604FF00118534600224146DD
:1022E0002046009600F085F9B8BB206908F1010985
:1022F000B0F5804F12D00620216800EAD51747F0CC
:10230000F00008613346524608F10701204600F00C
:10231000A1F938B1206C04282FD01EE0E8B240F0BB
:1023200001001FE02168E8B2086133465246494681
:10233000204600F08FF90028ECD1206841698169BE
:102340000091016841F480710160534600224146CA
:102350002046009600F04DF910B10320BDE8F88F3B
:1023600047F0F1002168086133465246494620464D
:1023700000F070F90028CDD1F0E70120EEE7000071
:10238000F8B50446C06A1E460D461746042807D015
:10239000012805D010F5803F02D0206B122804D10F
:1023A0002068016841F480710160134600224FF0FB
:1023B00001112046009600F01CF9A0B92069B0F583
:1023C000804F12D00620216800EAD51040F0F000BE
:1023D000086133463A460E49204600F03BF938B1D1
:1023E000206C042811D00320F8BD05F0FE0000E0A9
:1023F000E8B221680861064933463A46891F2046FB
:1024000000F028F90028EBD1F8BD0120F8BD00004C
:10241000080001002DE9F84F0446006889460B9D2D
:1024200001689846174641F48061016020680168A0
:1024300041F48071016000954FF0011A002251466D
:1024400020460A9B00F0D5F8F0BB216809F0FE0099
:1024500008610AF1010B2B46594620460A9A00F002
:10246000F9F818B1206C042812D03AE020684169CC
:10247000806900902A4620460A9900F060F950B120
:10248000206C04282DD12068016841F4007101609E
:102490000120BDE8F88FFEB2B8F1010F09D0216824
:1024A000380A08612A4620460A9900F048F90028AF
:1024B000E6D1206806612A4620460A9900F03FF9D5
:1024C0000028DDD1206800E00BE0016841F4807154
:1024D000016000950022514620460A9B00F089F8D1
:1024E00008B10320D5E7216809F0FF0040F00100A2
:1024F00008612B46594620460A9A00F0ABF800289E
:10250000B0D1C6E72DE9F843044600680D46DDE981
:10251000089701689846164641F4807101604B4661
:1025200000224FF001112046009700F062F8E8B950
:10253000216805F0FE0008613B464A4618492046DE
:1025400000F088F828B1206C04280FD10120BDE8E4
:10255000F88320684169806900903A4649462046E0
:1025600000F0EDF820B1206C042813D00320EEE732
:10257000F5B2B8F1010F09D02168300A08613A4676
:102580004946204600F0DBF80028ECD120680561C0
:102590000020DCE72068016841F400710160D5E7A4
:1025A0000200010070B516460D4604461AE02046AA
:1025B000FFF762FE08B1012070BD681C12D025B182
:1025C000FEF792FE801BA8420CD954F8400F40F051
:1025D000200044F81009002020602021617320733E
:1025E000032070BD20684069C0434007DFD400204D
:1025F00070BD2DE9F0471E4690460D460446C1F3D6
:102600000747DDF8209012E0701C10D02EB1FEF7C5
:102610006BFEA0EB0900B04209D9002044F8300F4E
:1026200020216173A07320730320BDE8F087206828
:10263000012F0AD0806925EA00000004000C06D0B2
:1026400000214145E0D00020EFE74069F3E7012198
:10265000F7E700002DE9F0479A4691460D460446FB
:1026600000264FF02008C1F307472AE020684069A0
:10267000C043400512D42068016841F40071016034
:1026800021686FF48060486104202064266384F828
:102690003D8084F83C600120BDE8F087B9F1FF3F40
:1026A0000FD0B9F1000F05D0FEF71EFEA0EB0A0116
:1026B000494506D944F8306F84F80D80267303200D
:1026C000EAE72068012F07D0D0F8180025EA0000BB
:1026D0000004000CE0D0C9E74069F7E72DE9F041BC
:1026E000002590460E460446202721E04069C0435D
:1026F000C0060CD421686FF0100048612564256382
:1027000084F83D7084F83C500120BDE8F0812EB182
:10271000FEF7EAFDA0EB0800B04209D954F8400FDB
:1027200040F0200044F80409677025700320ECE7AE
:1027300020684169C9434906D8D40020E5E770B54F
:1027400016460D4604461AE02046FFF795FD08B1EF
:10275000012070BD681C12D025B1FEF7C5FD801B9D
:10276000A8420CD954F8400F40F0200044F810095A
:1027700000202060202161732073032070BD206839
:102780004069C0430006DFD4002070BDFEE77047FB
:102790000907090E002806DA00F00F0000F1E0201A
:1027A00080F8141D704700F1E02080F80014704795
:1027B00070477047FFF784B930B593B03021684651
:1027C000FDF736FD14210CA8FDF732FD1948002550
:1027D000016841F080510160006800F08050119064
:1027E0001548016841F4804101600068022400F44A
:1027F0008040119001200090000401908001CDE9FB
:10280000064008AA0420A82182E813000B9068461D
:10281000FFF7CAFA0CA90F2081E831004FF4A0504D
:102820000F90E002109005210CA8FFF7D5F913B026
:1028300030BD000040380240007000401048016880
:1028400041F4700101600F48016841F0010101602D
:102850000C4A00210832116002680B4B1A400260DA
:10286000031D0A4A1A60026822F4802202600548A9
:102870000C3001600249580680390860704700003A
:1028800088ED00E000380240FFFFF6FE1030002423
:102890002DE9F04104460068016921F44052E168E5
:1028A000114301612168C86849F20C6290432369B1
:1028B000A268E5691A4363692B431A430243CA605D
:1028C0002168486920F44072A06910434861E169B9
:1028D0006425B1F5004F9748974A21684FF03208B8
:1028E0003FD0914201D081427CD1FFF71DFA00EB2D
:1028F000C00101EB001061688900B0FBF1F6FFF741
:1029000013FA00EBC00101EB001061688900B0FB15
:10291000F1F0B0FBF5F06FF01801484306EB8001D1
:1029200008EB0110B0FBF5F000F0F006FFF7FCF942
:1029300000EBC00101EB001061688900B0FBF1F011
:10294000B0FBF5F006EB0016FFF7EEF900EBC00167
:1029500001EB001061688900B0FBF1F7FFF7E4F9C3
:10296000D2E0914201D081423DD1FFF7DDF900EB89
:10297000C00101EB001061684900B0FBF1F0B0FB51
:10298000F5F00601FFF7D0F900EBC00101EB0010F4
:1029900061684900B0FBF1F7FFF7C6F900EBC00131
:1029A00001EB001061684900B0FBF1F0B0FBF5F0FD
:1029B0006FF01801484307EB800108EBC100B0FB42
:1029C000F5F000F0F80006EB4006FFF7ADF900EB7C
:1029D000C00101EB001061684900B0FBF1F7FFF79F
:1029E000A3F93CE055E0FFF78FF900EBC00101EBE4
:1029F000001061684900B0FBF1F0B0FBF5F0060192
:102A0000FFF782F900EBC00101EB0010616849009B
:102A1000B0FBF1F7FFF778F900EBC00101EB001014
:102A200061684900B0FBF1F0B0FBF5F06FF0180100
:102A3000484307EB800108EBC100B0FBF5F000F064
:102A4000F80006EB4006FFF75FF900EBC00101EB71
:102A5000001061684900B0FBF1F7FFF755F900EB92
:102A6000C00101EB001061684900B0FBF1F0B0FB60
:102A7000F5F06FF01801484307EB800108EBC10047
:102A8000B0FBF5F000F00700216830448860BDE835
:102A9000F081FFF739F900EBC00101EB001061682C
:102AA0008900B0FBF1F6FFF72FF900EBC00101EB55
:102AB000001061688900B0FBF1F0B0FBF5F06FF039
:102AC0001801484306EB800108EB0110B0FBF5F05C
:102AD00000F0F006FFF718F900EBC00101EB001061
:102AE00061688900B0FBF1F0B0FBF5F006EB001671
:102AF000FFF70AF900EBC00101EB001061688900E3
:102B0000B0FBF1F7FFF700F900EBC00101EB00109B
:102B100061688900B0FBF1F0B0FBF5F06FF01801CF
:102B2000484307EB800108EB0110B0FBF5F000F023
:102B30000F00A9E700140140001001402DE9F04109
:102B4000984617460E460446069D1DE0681C1BD09D
:102B50002DB1FEF7C9FBA0EB0800A84214D92068EC
:102B6000C16821F4D071C1602068416921F0010180
:102B70004161202084F8390084F83A00002084F86C
:102B800038000320BDE8F0812068006836EA0000C4
:102B900004D00020B842D9D00020F3E70120F9E7A3
:102BA000FEE700000FB4054B10B503A9044A0298D4
:102BB00000F0CAF810BC5DF814FB0000793400087E
:102BC0004400002002E008C8121F08C1002AFAD100
:102BD00070477047002001E001C1121F002AFBD19D
:102BE000704700002DE9FF5FDDE90220010DDDF8EF
:102BF00038B0024318D044F61050A1F2FF314143DF
:102C00000D140F98012820D0A5EB0B00401C5FEAA3
:102C1000000A4FF00004474EDFF81C91A0465046D2
:102C200016D5CAF1000728E00F98012443A2012815
:102C300008D0002100980F9BC0E90021C0E90243A1
:102C4000BDE8FF9F6FEA0B01F4E7CBF10000DEE780
:102C5000074612E0F80707D0224633464046494669
:102C6000FDF798FB804689462246334610461946B2
:102C7000FDF790FB04460E467F10002FEAD1DDE9F8
:102C80000201BAF1000F42464B4602DAFDF782FB21
:102C900001E0FDF7F1FB04460E460022284BFDF74C
:102CA00029FD03D84FF0FF30014607E00022254BF5
:102CB00020463146FDF7C7FAFDF704FD102409E070
:102CC000002C0ADB0A220023FDF77AFA019B30323E
:102CD0001A55641E50EA0102F2D1641C019AC4F133
:102CE000110314440F9A012A03D0012208430DD185
:102CF0000AE0084304D000204FF0110B0F9080E74A
:102D0000A3EB0B056D1E0DE05B4504DD4FF00002EB
:102D100005F1010504E003DA4FF00002A5F1010519
:102D2000002AECD000980F99C0E90231C0E90045B3
:102D300086E70000000024400000F03F3000000063
:102D40000000F0430000E03F2DE9FF4F95B09B46A7
:102D50008946064600250FE2252877D1002427461C
:102D6000F84A0121059400E0044316F8013F203B96
:102D700001FA03F01042F7D130782A2811D06FF011
:102D80002F033078A0F13002092A16D8059A44F0B2
:102D9000020402EB820203EB42021044761C05900F
:102DA000EFE759F8042B0592002A03DA504244F465
:102DB0000054059044F00204761C30782E2816D179
:102DC00016F8010F44F004042A280DD06FF02F02EA
:102DD0003078A0F13003092B09D807EB870302EB09
:102DE0004303C718761CF3E759F8047B761C307848
:102DF0006C280FD006DC4C2817D068280DD06A2824
:102E000014D104E0742810D07A280FD10DE044F4D6
:102E100000140AE044F4801401E044F44014727891
:102E2000824202D104F58014761C761C3078662824
:102E30000BD013DC582877D009DC002875D0452842
:102E4000F6D04628F4D047281AD19DE118E063282F
:102E500035D0642879D0652812D195E1702873D0D7
:102E600008DC6728F1D069286FD06E280DD06F2854
:102E700006D1B5E073282CD0752875D0782874D089
:102E80005A46179990476D1C75E1C4F30250022809
:102E900009D003280DD0D9F8001004280DD00D60FA
:102EA00009F1040967E1D9F80010EA17C1E90052F5
:102EB000F6E7D9F800100D80F2E70D70F0E719F889
:102EC000041B8DF8001000208DF80100EA46012057
:102ED00003E059F804AB4FF0FF3061074FF00001F9
:102EE00002D40DE008F101018846B9420FDA8045AD
:102EF000F8DB1AF808100029F4D108E008F1010104
:102F000088468142FADB1AF808100029F6D10598A4
:102F10005B46A0EB080721463846179A00F094FA62
:102F2000284400EB080507E04DE029E10DE01AF820
:102F3000010B5A4617999047B8F10108F7D25B4642
:102F400021463846179A13E142E00A220092C4F360
:102F500002524FF0000A022A08D059F804CB032A83
:102F60004FEAEC710AD00DE029E02AE009F10701EF
:102F700021F00702F2E802C1914609E00FFA8CFC49
:102F80004FEAEC71042A03D14FFA8CFC4FEAEC7142
:102F9000002907DA0A460021DCF1000C61EB02018E
:102FA0002D2202E0220504D52B228DF804200122D7
:102FB00003E0E20701D02022F7E7904659E00A211A
:102FC00002E010220DE010214FF0000A00910BE00A
:102FD00010224FF0000A44F004040827009203E096
:102FE00008224FF0000A0092C4F30252022A05D0D0
:102FF00059F804CB0021032A08D009E009F10701A0
:1030000021F00702F2E802C1914605E01FFA8CFCAC
:10301000042A01D10CF0FF0C4FF00008220728D53C
:10302000702806D0009B83F0100353EA0A0305D0F2
:103030000EE040228DF80420012208E05CEA010243
:1030400006D030228DF804208DF80500022290462B
:10305000009B83F0080353EA0A030AD15CEA0102E9
:1030600001D1620705D530228DF804204FF0010808
:103070007F1E582804D034A003900EA802900DE0C3
:1030800036A0F9E753466046009AFDF799F8844662
:103090000398825C0298401E029002705CEA010074
:1030A000F0D1029806A9081A00F1200A600702D59B
:1030B00024F4803400E00127574502DDA7EB0A0025
:1030C00000E0002000EB0A01009005984144401AFE
:1030D0000590E00306D45B462146179A059800F058
:1030E000B3F90544002706E001A85A46C05D1799C8
:1030F00090476D1C7F1C4745F6DBE0030CD55B4613
:103100002146179A059800F09FF9054404E0302005
:103110005A46179990476D1C0099481E0090002947
:10312000F5DC08E0029802995A460078491C0291A1
:10313000179990476D1CBAF10001AAF1010AF1DC60
:1031400065E100000928010030313233343536376B
:1031500038396162636465660000000030313233E3
:103160003435363738394142434445460000000083
:1031700000F058F90544761C307800287FF4ECAD57
:1031800019B02846BDE8F08F620700D4062709F180
:10319000070222F0070CFCE80223E14603F0004896
:1031A0005FEA080C02D00FF2702C0DE05FEA045CBD
:1031B00002D50FF2682C07E05FEAC47C02D00FF260
:1031C000602C01E0AFF2700C4FF0FF3823F00043A9
:1031D000CDF850C065280CD006DC452809D046281B
:1031E0001DD047283DD13DE0662818D067287ED104
:1031F00038E00021112F01DB112000E0781CCDE91F
:10320000000106A90EA8FFF7EDFCDDE90F010E9AFB
:1032100003910021009207F1010A04914DE04FF063
:1032200000400097CDE9011006A90EA8FFF7DAFCCF
:10323000DDE90F0203920E9B11990022DDF80CA02C
:103240000093049211B9791C00EB010AB7EB0A0054
:1032500004D4C0F1FF3007F1010A0490AAEB070083
:10326000019044E0012F00DA01270021112F01DD38
:10327000112000E03846CDE9000106A90EA8FFF7AD
:10328000B1FCDDE90F010E9A039100210491009237
:10329000BA4621070CD40399514500DA8A46BAF19F
:1032A000010F05DD009AAAF10101515C302908D017
:1032B000B84202DA10F1040F06DA0121CDE901105B
:1032C00015E0AAF10101E9E7002805DC04990144B1
:1032D0000491AAEB000102E0411C514500DD8A4641
:1032E0000499401A401C01904FF0004002902007C2
:1032F00004D40198504501DBCDF8048000208DF8FE
:103300004F0002980DF14F07B0F1004F25D02B2050
:103310000E9002984FF0020800280CDA404202900A
:103320002D200E9007E00A210298FDF727F9303191
:10333000029007F8011DB8F10001A8F10108F2DCC4
:1033400002980028EFD1791E0E980870307800F0AE
:10335000200040F0450007F8020D12A8C01B00F144
:1033600007081498007800B1012000EB0A010198C9
:1033700001EBE07105984144401A401E0590E003BE
:1033800006D45B462146179A059800F05DF805447F
:103390001498007818B15A46179990476D1CE003AD
:1033A00024D55B462146179A059800F04DF8054450
:1033B0001CE00498002807DBDDE90301884203DDF7
:1033C0000098405C179901E0179930205A469047C1
:1033D000049805F10105401C04900198401E0190DD
:1033E00004D12E205A46179990476D1CBAF100015E
:1033F000AAF1010ADDDC05E017F8010B5A4617991E
:1034000090476D1CB8F10001A8F10108F4DC5B469F
:103410002146179A0598ABE62D0000002B0000000E
:10342000200000002DE9F041044600251E46174605
:10343000880404D405E039462020B0476D1C641E82
:10344000F9D52846BDE8F0812DE9F0410446002574
:103450001E469046C80301D5302700E02027880487
:1034600004D505E041463846B0476D1C641EF9D5C9
:103470002846BDE8F081000013B54FF6FF73012226
:1034800069460248FEF79AFE00981CBD9C00002089
:1034900008B5FEF71DFBFFF78FF9224800240168ED
:1034A00041F080010160016801F080010091016834
:1034B00041F002010160016801F002010091016820
:1034C00041F0040101600068174900F00400009019
:1034D000164801601649C0E901144FF48041C0E963
:1034E000034144618461C4610462FDF703FF0F4836
:1034F0001049543001604FF4E131C0E901140C214E
:10350000C460C0E904418461C461FEF7EFFD00F0CE
:1035100023F94FF47A7400BF00F00EF82046FDF74F
:10352000F9FDF9E73038024000580040480000201B
:10353000A08601000048004030B585B004AA03A968
:1035400002A8FDF74FF902AC3BA094E80E00FFF78C
:1035500029FB00210846FDF7FFF804460221FDF78C
:103560001EFA10B13EA0FFF71DFB03212046FDF718
:1035700016FA10B13DA0FFF715FB04212046FDF718
:103580000EFA10B13DA0FFF70DFB05212046FDF717
:1035900006FA10B13CA0FFF705FB06212046FDF717
:1035A000FEF910B13CA0FFF7FDFA3DA0FFF7FAFAD3
:1035B000FDF728FA10EE100AFCF7CDFF41EC100BD6
:1035C00038A053EC102BFFF7EDFAFDF733FBFDF7B6
:1035D00001FB0446FDF7F8FA0146224639A0FFF741
:1035E000E1FAFDF7EBFB014642A0FFF7DBFAFDF73E
:1035F000DBFB10B147A0FFF7D5FA29A0FFF7D2FAFD
:10360000FDF7AAFC10EE100AFCF7A5FF0D460446D4
:10361000FDF7D4FC10EE100AFCF79DFF41EC100BF7
:1036200040A053EC102BCDE90045FFF7BBFA1CA0DE
:10363000FFF7B8FA05B030BD5B4243414343333135
:1036400036475D2078203A20256420202079203AD2
:103650002025642020207A203A20256400000000E4
:1036600020286672656566616C6C29002028696E89
:1036700061637469766974792900000020286163A8
:1036800074697669747929002028646F75626C65A5
:103690002074617029000000287461702900000006
:1036A0000A0D00005B4243414C533038334B5D20E0
:1036B000414C53203A2025302E3266206C75780A12
:1036C0000D0000005B4243415153313138375D20DA
:1036D00054564F43203A20256420707062202020E9
:1036E000202065434F32203A202025642070706DE1
:1036F0000A0D00005B4243445044433130305D20AA
:1037000050726F78696D69747920414443203A2082
:1037100025640000202870726F78696D69747929BA
:10372000200000005B4243485453343038355D205C
:1037300054656D70203A2025302E326620204320BB
:10374000202048756D6964203A2025302E3266208D
:1037500025250A0D0000000010B586A0FFF722FA0B
:103760008F495320FDF708F8FDF72CF84B20FDF7A3
:1037700069F84B20FDF7A5F80A20FDF705F90120AF
:10378000FDF76BF80120FDF76DF80120FDF76FF8EC
:103790000120FDF7A1F80120FDF7A3F80120FDF7B6
:1037A000A5F80020FDF7CBF80020FDF7CDF80120AB
:1037B000FDF7CFF83220FDF7DCF80F20FDF7CEF84B
:1037C0005020FDF759F8C820FDF75AF80720FDF7FB
:1037D0006DF82D20FDF75FF800210620FDF790F829
:1037E00000210520FDF78CF800210220FDF788F864
:1037F00000210420FDF784F800210320FDF780F864
:1038000001210620FDF777F801210520FDF773F867
:1038100001210220FDF76FF801210420FDF76BF86C
:1038200001210320FDF767F85EA0FFF7BBF965A053
:10383000FFF7B8F963A0FFF7B5F963A0FFF7B2F996
:1038400057494420FDF7C2F80C20FDF766F9012026
:10385000FDF779F91420FDF75DFC0220FDF733F93F
:103860000120FDF74AF90120FDF70DF90120FDF7D0
:103870001AF90020FDF7E6F84AA0FFF793F951A0E6
:10388000FFF790F94FA0FFF78DF95AA0FFF78AF9DB
:1038900043495A20FDF7A4F9FDF77CF96420FDF7B0
:1038A00039FCFDF78DF9322240F6C41140F2DC50AC
:1038B000FDF7F2F90120FDF7DFF93AA0FFF772F901
:1038C00040A0FFF76FF93FA0FFF76CF955A0FFF795
:1038D00069F933493920FDF741FAFDF757FAFDF749
:1038E0001CFAFDF730FAFDF70DFAFF20FDF70BFB90
:1038F000FF20FDF70CFBFF20FDF722FB0020FDF76A
:10390000A6FA0220FDF77CFA2020FDF7F8FA002045
:10391000FDF7BBFA4FF47A70FDF78DFA0A20FDF738
:10392000C0FAFDF705FA1FA0FFF73CF925A0FFF745
:1039300039F924A0FFF736F947A0FFF733F9184902
:103940004020FDF701FB0020FDF7AAFB0020FDF75A
:1039500057FB0520FDF76FFBFDF7BDFB11A0FFF73F
:1039600021F918A0FFF71EF9BDE8104015A0FFF7D8
:1039700019B900005B4243414343333136475D2070
:103980003361786973206163636C65746F726D6510
:1039900074657220456E61626C65640A0D000000FA
:1039A00048000020496E697469616C697A65642019
:1039B00042432053656E736F72732053657269655D
:1039C000730A0D000A0D00005B4243414C5330382E
:1039D000334B5D20416D6269656E74204C69676888
:1039E000742053656E736F7220456E61626C6564FE
:1039F0000A0D00005B4243415153313138375D209D
:103A0000496E646F6F7220416972205175617269ED
:103A100074792053656E736F7220456E61626C65B8
:103A2000640A0D005B4243445044433130305D2012
:103A30004469676974616C2050726F78696D69744C
:103A400079204465746563746F7220456E61626CA1
:103A500065640A0D000000005B4243485453343053
:103A600038355D2054656D706572617475726520BE
:103A7000262048756D69646974792053656E736F8B
:103A80007220456E61626C65640A0D0000000000E2
:103A900000000000010203040607080900000000FE
:103AA00001020304C43A000800000020480000009E
:103AB000C42B00080C3B000848000020B0040000A4
:103AC000D42B0008000000000000000000000000EF
:103AD00000000000000000000000000000000000E6
:103AE00000000000000000000000000000000000D6
:103AF00000000000000000000100000010000000B5
:0C3B0000000000000024F40000000000A1
:040000050800018965
:00000001FF
